H49937055000111GMAC ADMINISTRADORA DE CONSÓRCIOS LTDA            20251114004972
101900400940043771096855   MARCELO AUGUSTO SOUZA VAZ CARVALHO      Cobranca       0009316400000085450000085450000103660000000270001800000000300000660842025122600008757141000072373070000000-1160000007502581% ONIX 1.0RUA CURITIBA, 1040                      ALTO DA ESTACAO          AO LADO 3117890000JUNQUEIROPOLIS                SP000               018983234303      marcelomaccarvalho@hotmail.com                    IRMANDADE DA SANTA CASA DE MISR PORTO ALEGRE, 1221                    CENTRO                             17890000JUNQUEIROPOLIS                SP01838419420                                                   000                   19941007NIVALDO BASSOLI CARVALHO                ZILMA DE SOUZA VAZ CARVALHO             Consultor e Outros Analistas nao classif20201014        2020071620200821L20200825000410099000298JAVEP VEICULOS PECAS E SERVICOS LTDA    00000100000049720008839752
2019004009400        001020251020000033000000000007502500000000002121000000000007714600000000190049400064202511140820640008545000153800002560000027
30190040094009BGKS48V0KG120120    BCI5A29   01160797398  ONIX           2018/2019VERMELHA        01 - CHEVROLET      20200928                                                                                                                                                                                                                                                        000000000000
4019004009400PESSOAL              ZILMA                                   .                                                                000983234303                   
6019004009400        001020251121000033000000000007502500000000000000000000000007502500000000190049400065202511140830650008545000025600015380000027
6019004009400        001020251222000033000000000007514100000000000000000000000007514100000000190049400066202511140840660008558000027200015250000027
101900502060078635349849   NILTON ALVES PEREIRA                    Cobranca       00098218300000974400000807500000977100000000000018000000003000004708420260520000087571410000723730700000000-290000007071581% ONIX 1.0RUA GENERAL GLICERIO 1905               VL MACENO                AP. 71    15060000SAO JOSE DO RIO PRETO         SP000               017997712157      senyl@terra.com.br                                NILTON ALVES PEREIRA REPRESENT                                                                                                                   000                                                           000                   19540802MARIO ALVES PEREIRA                     APARECIDA LINO PEREIRA                  Outros trabalhadores de servicos diverso20220307        20211217        L20220222000552099000298JAVEP VEICULOS PECAS E SERVICOS LTDA    00000100000049722000051907
2019005020600        001020251015000033000000000008532700000000002560000000000008788700000000190050600046202511140770460009744000175400002920000000
501900502060006502554881   NANCI QUEIROZ DE ASSIS PEREIRA                                                                                                                             000000000000000000000000000000000000senyl@terra.com.br                                                                                                                                                                       000000000000000000                                            000000000000000000                                                                                                             0000000000000000000000                                                                                                         0000000000000000000000                                                                                                         0000000000000000000000                                                                                                         0000000000000000000000
6019005020600        001020251117000033000000000007071500000000000000000000000007071500000000190050600047202511140780470008075000024200014540000000
101900700070034257277000116JESSICA RODRIGUES DE PAULA 10151431647  Cobranca       00078382700001003500001003500001214200000000000018000000003000007108420270824000084691530000699930000000-298880000008498670% ONIX 1.0AVENIDA GETULIO VARGAS 2475             RECREIO SAO JUDAS TADEU  APTO. 163 13571271SAO CARLOS                    SP000               016997656951      contatojessicardp1@gmail.com                                                    AVENIDA GETULIO VARGAS 2475             RECREIO SAO JUDAS TADEU  APTO. 163 13571271SAO CARLOS                    SP000                                                           000                   20190718                                                                                                                        20220617        20210906        L20220426000300000000298JAVEP VEICULOS PECAS E SERVICOS LTDA    00000100000049722000011049
2019007000700        001020251017000033000000000008498600000000002493000000000008747900000000190070700050202511140620500010035000180600003010000000
30190070007009BGKT69L0FG109753    FRS5A37   01005882603  PRISMA         2014/2015PRATA           01 - CHEVROLET      00000000                                                                                                                                                                                                                                                        000000000000
501900700070010151431647   JESSICA RODRIGUES DE PAULA                                                                                                                                 000000000000000000000000000000000000contatojessicardp@outlook.com.                                                                                                                                                           000000000000000000                                            000000000000000000                                                                                                             0000000000000000000000                                                                                                         0000000000000000000000                                                                                                         0000000000000000000000                                                                                                         0000000000000000000000
6019007000700        001020251117000033000000000008498600000000000000000000000008498600000000190070700051202511140630510010035000030100018060000000
6019007000700        001020251217000033000000000008498600000000000000000000000008498600000000190070700052202511140640520010035000030100018060000000
6019007000700        001020260119000033000000000008498600000000000000000000000008498600000000190070700053202511140650530010035000030100018060000000
6019007000700        001020260217000033000000000008498600000000000000000000000008498600000000190070700054202511140660540010035000030100018060000000
6019007000700        001020260317000033000000000008524500000000000000000000000008524500000000190070700055202511140670550010052000031000018170000000
6019007000700        001020260417000033000000000008498600000000000000000000000008498600000000190070700056202511140680560010035000030100018060000000
6019007000700        001020260518000033000000000008498600000000000000000000000008498600000000190070700057202511140690570010035000030100018060000000
6019007000700        001020260617000033000000000008542000000000000000000000000008542000000000190070700058202511140700580010086000030300018150000000
6019007000700        001020260717000033000000000008498600000000000000000000000008498600000000190070700059202511140710590010035000030100018060000000
6019007000700        001020260817000033000000000008542000000000000000000000000008542000000000190070700060202511140720600010086000030300018150000000
6019007000700        001020260917000033000000000008498600000000000000000000000008498600000000190070700061202511140730610010035000030100018060000000
6019007000700        001020261019000033000000000008498600000000000000000000000008498600000000190070700062202511140740620010035000030100018060000000
6019007000700        001020261117000033000000000008498600000000000000000000000008498600000000190070700063202511140750630010035000030100018060000000
6019007000700        001020261217000033000000000008498600000000000000000000000008498600000000190070700064202511140760640010035000030100018060000000
6019007000700        001020270118000033000000000008542000000000000000000000000008542000000000190070700065202511140770650010086000030300018150000000
6019007000700        001020270217000033000000000008498600000000000000000000000008498600000000190070700066202511140780660010035000030100018060000000
6019007000700        001020270317000033000000000008498600000000000000000000000008498600000000190070700067202511140790670010035000030100018060000000
6019007000700        001020270419000033000000000008498600000000000000000000000008498600000000190070700068202511140800680010035000030100018060000000
6019007000700        001020270517000033000000000008498600000000000000000000000008498600000000190070700069202511140810690010035000030100018060000000
6019007000700        001020270617000033000000000008498600000000000000000000000008498600000000190070700070202511140820700010035000030100018060000000
6019007000700        001020270719000033000000000007448000000000000000000000000007448000000000190070700071202511140830710008794000026400015830000000
101900700970039158660836   PRISCILA BOAVENTURA MIRANDA             Cobranca       0007384930000113860000113860000140550000002780001800000000300000650842027082400007622252000062993820000000-4090000008854063% ONIX 1.0RUA LUIZ BARBOSA DE CAMPOS 90           JARDIM ALVORADA          AP 23     13562330SAO CARLOS                    SP000               011988157000      priboaventura@icloud.com                          AUTONOMO                                                                                                                                         000                                                           000                   19900718CLEZIO APARECIDO BOAVENTURA             MARILENE JANGELLI BOAVENTURA            Outros trabalhadores de servicos diverso20220722        20220418        L20220622000300000000298JAVEP VEICULOS PECAS E SERVICOS LTDA    00000100000049722000107624
2019007009700        001020251017000033000000000008854000000000002546000000000009108600000000190079700043202511140620430011386000204900003420000278
30190070097009BWBH6BF1N4059764    GDW7E97   01315805100  T CROSS        2022/2022PRATA           09 - VOLKSWAGEN     00000000                                                                                                                                                                                                                                                        000000000000
6019007009700        001020251117000033000000000008854000000000000000000000000008854000000000190079700044202511140630440011386000034200020490000278
6019007009700        001020251217000033000000000008854000000000000000000000000008854000000000190079700045202511140640450011386000034200020490000278
6019007009700        001020260119000033000000000008854000000000000000000000000008854000000000190079700046202511140650460011386000034200020490000278
6019007009700        001020260217000033000000000008854000000000000000000000000008854000000000190079700047202511140660470011386000034200020490000278
6019007009700        001020260317000033000000000008854000000000000000000000000008854000000000190079700048202511140670480011386000034200020490000278
6019007009700        001020260417000033000000000008854000000000000000000000000008854000000000190079700049202511140680490011386000034200020490000278
6019007009700        001020260518000033000000000008854000000000000000000000000008854000000000190079700050202511140690500011386000034200020490000278
6019007009700        001020260617000033000000000008854000000000000000000000000008854000000000190079700051202511140700510011386000034200020490000278
6019007009700        001020260717000033000000000008854000000000000000000000000008854000000000190079700052202511140710520011386000034200020490000278
6019007009700        001020260817000033000000000008854000000000000000000000000008854000000000190079700053202511140720530011386000034200020490000278
6019007009700        001020260917000033000000000008854000000000000000000000000008854000000000190079700054202511140730540011386000034200020490000278
6019007009700        001020261019000033000000000008854000000000000000000000000008854000000000190079700055202511140740550011386000034200020490000278
6019007009700        001020261117000033000000000008854000000000000000000000000008854000000000190079700056202511140750560011386000034200020490000278
6019007009700        001020261217000033000000000008854000000000000000000000000008854000000000190079700057202511140760570011386000034200020490000278
6019007009700        001020270118000033000000000008854000000000000000000000000008854000000000190079700058202511140770580011386000034200020490000278
6019007009700        001020270217000033000000000008854000000000000000000000000008854000000000190079700059202511140780590011386000034200020490000278
6019007009700        001020270317000033000000000008854000000000000000000000000008854000000000190079700060202511140790600011386000034200020490000278
6019007009700        001020270419000033000000000008854000000000000000000000000008854000000000190079700061202511140800610011386000034200020490000278
6019007009700        001020270517000033000000000008854000000000000000000000000008854000000000190079700062202511140810620011386000034200020490000278
6019007009700        001020270617000033000000000008854000000000000000000000000008854000000000190079700063202511140820630011386000034200020490000278
6019007009700        001020270719000033000000000008854000000000000000000000000008854000000000190079700064202511140830640011386000034200020490000278
6019007009700        001020270817000033000000000008614100000000000000000000000008614100000000190079700065202511140840650011068000030600020220000278
101900901520047589080000126RITA INES PIRAGINI CASSARO LTDA         Cobranca       000584018000013059000013059000015474000000422000210000000030000046084202805260000781123400006299382000000000000000009747763% ONIX 1.0RUA AMARAL GURGEL 735                   CENTRO                             17201010JAU                           SP000               014997144051      cometaembalagens@hotmail.com                                                    RUA AMARAL GURGEL 735                   CENTRO                             17201010JAU                           SP014997144051                                                  000                   19770517                                                                                                                        20240911        20240814        L20240829000535725000298JAVEP VEICULOS PECAS E SERVICOS LTDA    00000100000049722000542605
2019009015200        001020251020000033000000000009747700000000002686000000000010016300000000190095200015202511140530150013059000162900003640000422
501900901520010176889825   RITA INES PIRAGINI CASSARO                                                                                                                                 000000000000000000014000000997144051cometaembalagens@hotmail.com                                                                                                                                                             000000000000000000                                            000000000000000000                                                                                                             0000000000000000000000                                                                                                         0000000000000000000000                                                                                                         0000000000000000000000                                                                                                         0000000000000000000000
6019009015200        001020251121000033000000000009747700000000000000000000000009747700000000190095200016202511140540160013059000036400016290000422
6019009015200        001020251222000033000000000009747700000000000000000000000009747700000000190095200017202511140550170013059000036400016290000422
6019009015200        001020260120000033000000000009747700000000000000000000000009747700000000190095200018202511140560180013059000036400016290000422
6019009015200        001020260220000033000000000009747700000000000000000000000009747700000000190095200019202511140570190013059000036400016290000422
6019009015200        001020260320000033000000000009747700000000000000000000000009747700000000190095200020202511140580200013059000036400016290000422
6019009015200        001020260420000033000000000009747700000000000000000000000009747700000000190095200021202511140590210013059000036400016290000422
6019009015200        001020260520000033000000000009747700000000000000000000000009747700000000190095200022202511140600220013059000036400016290000422
6019009015200        001020260622000033000000000009747700000000000000000000000009747700000000190095200023202511140610230013059000036400016290000422
6019009015200        001020260720000033000000000009747700000000000000000000000009747700000000190095200024202511140620240013059000036400016290000422
6019009015200        001020260820000033000000000009747700000000000000000000000009747700000000190095200025202511140630250013059000036400016290000422
6019009015200        001020260921000033000000000009747700000000000000000000000009747700000000190095200026202511140640260013059000036400016290000422
6019009015200        001020261020000033000000000009747700000000000000000000000009747700000000190095200027202511140650270013059000036400016290000422
6019009015200        001020261123000033000000000009747700000000000000000000000009747700000000190095200028202511140660280013059000036400016290000422
6019009015200        001020261221000033000000000009747700000000000000000000000009747700000000190095200029202511140670290013059000036400016290000422
6019009015200        001020270120000033000000000009747700000000000000000000000009747700000000190095200030202511140680300013059000036400016290000422
6019009015200        001020270222000033000000000009747700000000000000000000000009747700000000190095200031202511140690310013059000036400016290000422
6019009015200        001020270322000033000000000009747700000000000000000000000009747700000000190095200032202511140700320013059000036400016290000422
6019009015200        001020270420000033000000000009747700000000000000000000000009747700000000190095200033202511140710330013059000036400016290000422
6019009015200        001020270520000033000000000009747700000000000000000000000009747700000000190095200034202511140720340013059000036400016290000422
6019009015200        001020270621000033000000000009747700000000000000000000000009747700000000190095200035202511140730350013059000036400016290000422
6019009015200        001020270720000033000000000009747700000000000000000000000009747700000000190095200036202511140740360013059000036400016290000422
6019009015200        001020270820000033000000000009747700000000000000000000000009747700000000190095200037202511140750370013059000036400016290000422
6019009015200        001020270920000033000000000009747700000000000000000000000009747700000000190095200038202511140760380013059000036400016290000422
6019009015200        001020271020000033000000000009747700000000000000000000000009747700000000190095200039202511140770390013059000036400016290000422
6019009015200        001020271122000033000000000009747700000000000000000000000009747700000000190095200040202511140780400013059000036400016290000422
6019009015200        001020271220000033000000000009747700000000000000000000000009747700000000190095200041202511140790410013059000036400016290000422
6019009015200        001020280120000033000000000009747700000000000000000000000009747700000000190095200042202511140800420013059000036400016290000422
6019009015200        001020280221000033000000000009747700000000000000000000000009747700000000190095200043202511140810430013059000036400016290000422
6019009015200        001020280320000033000000000009747700000000000000000000000009747700000000190095200044202511140820440013059000036400016290000422
6019009015200        001020280420000033000000000009747700000000000000000000000009747700000000190095200045202511140830450013059000036400016290000422
6019009015200        001020280522000033000000000008358000000000000000000000000008358000000000190095200046202511140840460011153000031700013760000422
101900903340047762219854   AMANDA GONCALVES IZIDORO                Cobranca       0007776450000069490000069490000086440000002370001800000000300000790842028052600010028964000082884000000000-3230000007164293% ONIX 1.0RUA EUGENIO FRANCO DE CAMARGO 1908      JARDIM BRASIL CENTRO     CA 2      13569270SAO CARLOS                    SP000               011991061487      izidora.amanda@hotmail.com                        AMANDA GONCALVES IZODORO ME                                                                                                                      000                                                           000                   19990127JOSIEL IZIDORO                          ADRIANA GIL GONCALVES IZIDORO           Outros trabalhadores de servicos diverso20220125        20211110        L20211224000530000000298JAVEP VEICULOS PECAS E SERVICOS LTDA    00000100000049722000036131
2019009033400        001020251020000033000000000007165000000000001975000000000007362500000000190093400048202511140530480006949000125000002090000237
30190090334003GNCJ8CW9FL233094    GAO3D26   01072330846  CHEV TRACKER LT2015/2015CINZA           01 - CHEVROLET      00000000                                                                                                                                                                                                                                                        000000000000
6019009033400        001020251121000033000000000007164200000000000000000000000007164200000000190093400049202511140540490006949000020800012500000237
6019009033400        001020251222000033000000000007165000000000000000000000000007165000000000190093400050202511140550500006949000020900012500000237
6019009033400        001020260120000033000000000007164200000000000000000000000007164200000000190093400051202511140560510006949000020800012500000237
6019009033400        001020260220000033000000000007165000000000000000000000000007165000000000190093400052202511140570520006949000020900012500000237
6019009033400        001020260320000033000000000007164200000000000000000000000007164200000000190093400053202511140580530006949000020800012500000237
6019009033400        001020260420000033000000000007168400000000000000000000000007168400000000190093400054202511140590540006949000020900012540000237
6019009033400        001020260520000033000000000007164200000000000000000000000007164200000000190093400055202511140600550006949000020800012500000237
6019009033400        001020260622000033000000000007165000000000000000000000000007165000000000190093400056202511140610560006949000020900012500000237
6019009033400        001020260720000033000000000007165000000000000000000000000007165000000000190093400057202511140620570006949000020900012500000237
6019009033400        001020260820000033000000000007168400000000000000000000000007168400000000190093400058202511140630580006949000020900012540000237
6019009033400        001020260921000033000000000007164200000000000000000000000007164200000000190093400059202511140640590006949000020800012500000237
6019009033400        001020261020000033000000000007177500000000000000000000000007177500000000190093400060202511140650600006960000020900012540000237
6019009033400        001020261123000033000000000007164200000000000000000000000007164200000000190093400061202511140660610006949000020800012500000237
6019009033400        001020261221000033000000000007164200000000000000000000000007164200000000190093400062202511140670620006949000020800012500000237
6019009033400        001020270120000033000000000007165000000000000000000000000007165000000000190093400063202511140680630006949000020900012500000237
6019009033400        001020270222000033000000000007165000000000000000000000000007165000000000190093400064202511140690640006949000020900012500000237
6019009033400        001020270322000033000000000007164200000000000000000000000007164200000000190093400065202511140700650006949000020800012500000237
6019009033400        001020270420000033000000000007165000000000000000000000000007165000000000190093400066202511140710660006949000020900012500000237
6019009033400        001020270520000033000000000007164200000000000000000000000007164200000000190093400067202511140720670006949000020800012500000237
6019009033400        001020270621000033000000000007165000000000000000000000000007165000000000190093400068202511140730680006949000020900012500000237
6019009033400        001020270720000033000000000007164200000000000000000000000007164200000000190093400069202511140740690006949000020800012500000237
6019009033400        001020270820000033000000000007164200000000000000000000000007164200000000190093400070202511140750700006949000020800012500000237
6019009033400        001020270920000033000000000007164200000000000000000000000007164200000000190093400071202511140760710006949000020800012500000237
6019009033400        001020271020000033000000000007164200000000000000000000000007164200000000190093400072202511140770720006949000020800012500000237
6019009033400        001020271122000033000000000007165000000000000000000000000007165000000000190093400073202511140780730006949000020900012500000237
6019009033400        001020271220000033000000000007164200000000000000000000000007164200000000190093400074202511140790740006949000020800012500000237
6019009033400        001020280120000033000000000007164200000000000000000000000007164200000000190093400075202511140800750006949000020800012500000237
6019009033400        001020280221000033000000000007168400000000000000000000000007168400000000190093400076202511140810760006949000020900012540000237
6019009033400        001020280320000033000000000007165000000000000000000000000007165000000000190093400077202511140820770006949000020900012500000237
6019009033400        001020280420000033000000000007164200000000000000000000000007164200000000190093400078202511140830780006949000020800012500000237
6019009033400        001020280522000033000000000007180900000000000000000000000007180900000000190093400079202511140840790006959000019700012710000237
101901100180091058988204   JESIEL BARBOSA ARAUJO                   Cobranca       000748475000005718000005718000007018000000238000240000000030000084084202901260000838103400006599239000000-20260000004631566% ONIX 1.0RUA DOUTOR GALDOS ANGULO 600            JARDIM JOSE WILSON TONI  TP TORRE 514056071RIBEIRAO PRETO                SP000               016981335221      jheison86@gmail.com                               JESIEL BARBOSA ARAUJO 91058988                                                                                                                   000                                                           000                   19860704ANTONIO FRANCISCO DE ARAUJO             MARIA JOSE BARBOSA ARAUJO               Outros trabalhadores de servicos diverso20230118        20220113        L20221229000601500000298JAVEP VEICULOS PECAS E SERVICOS LTDA    00000100000049722000062603
2019011001800        001020251020000033000000000004631500000000001268000000000004758300000000190111800045202511140450450005718000090600001560000238
301901100180093YHSR7P5FJ534709    FUF0I69   01029110171  DUSTER         2014/2015BRANCA          08 - RENAULT        00000000                                                                                                                                                                                                                                                        000000000000
6019011001800        001020251121000033000000000004631500000000000000000000000004631500000000190111800046202511140460460005718000015600009060000238
6019011001800        001020251222000033000000000004631500000000000000000000000004631500000000190111800047202511140470470005718000015600009060000238
6019011001800        001020260120000033000000000004631500000000000000000000000004631500000000190111800048202511140480480005718000015600009060000238
6019011001800        001020260220000033000000000004631500000000000000000000000004631500000000190111800049202511140490490005718000015600009060000238
6019011001800        001020260320000033000000000004631500000000000000000000000004631500000000190111800050202511140500500005718000015600009060000238
6019011001800        001020260420000033000000000004631500000000000000000000000004631500000000190111800051202511140510510005718000015600009060000238
6019011001800        001020260520000033000000000004631500000000000000000000000004631500000000190111800052202511140520520005718000015600009060000238
6019011001800        001020260622000033000000000004631500000000000000000000000004631500000000190111800053202511140530530005718000015600009060000238
6019011001800        001020260720000033000000000004631500000000000000000000000004631500000000190111800054202511140540540005718000015600009060000238
6019011001800        001020260820000033000000000004631500000000000000000000000004631500000000190111800055202511140550550005718000015600009060000238
6019011001800        001020260921000033000000000004631500000000000000000000000004631500000000190111800056202511140560560005718000015600009060000238
6019011001800        001020261020000033000000000004631500000000000000000000000004631500000000190111800057202511140570570005718000015600009060000238
6019011001800        001020261123000033000000000004631500000000000000000000000004631500000000190111800058202511140580580005718000015600009060000238
6019011001800        001020261221000033000000000004631500000000000000000000000004631500000000190111800059202511140590590005718000015600009060000238
6019011001800        001020270120000033000000000004631500000000000000000000000004631500000000190111800060202511140600600005718000015600009060000238
6019011001800        001020270222000033000000000004631500000000000000000000000004631500000000190111800061202511140610610005718000015600009060000238
6019011001800        001020270322000033000000000004631500000000000000000000000004631500000000190111800062202511140620620005718000015600009060000238
6019011001800        001020270420000033000000000004631500000000000000000000000004631500000000190111800063202511140630630005718000015600009060000238
6019011001800        001020270520000033000000000004631500000000000000000000000004631500000000190111800064202511140640640005718000015600009060000238
6019011001800        001020270621000033000000000004631500000000000000000000000004631500000000190111800065202511140650650005718000015600009060000238
6019011001800        001020270720000033000000000004631500000000000000000000000004631500000000190111800066202511140660660005718000015600009060000238
6019011001800        001020270820000033000000000004631500000000000000000000000004631500000000190111800067202511140670670005718000015600009060000238
6019011001800        001020270920000033000000000004631500000000000000000000000004631500000000190111800068202511140680680005718000015600009060000238
6019011001800        001020271020000033000000000004631500000000000000000000000004631500000000190111800069202511140690690005718000015600009060000238
6019011001800        001020271122000033000000000004631500000000000000000000000004631500000000190111800070202511140700700005718000015600009060000238
6019011001800        001020271220000033000000000004631500000000000000000000000004631500000000190111800071202511140710710005718000015600009060000238
6019011001800        001020280120000033000000000004631500000000000000000000000004631500000000190111800072202511140720720005718000015600009060000238
6019011001800        001020280221000033000000000004631500000000000000000000000004631500000000190111800073202511140730730005718000015600009060000238
6019011001800        001020280320000033000000000004631500000000000000000000000004631500000000190111800074202511140740740005718000015600009060000238
6019011001800        001020280420000033000000000004631500000000000000000000000004631500000000190111800075202511140750750005718000015600009060000238
6019011001800        001020280522000033000000000004631500000000000000000000000004631500000000190111800076202511140760760005718000015600009060000238
6019011001800        001020280620000033000000000004631500000000000000000000000004631500000000190111800077202511140770770005718000015600009060000238
6019011001800        001020280720000033000000000004631500000000000000000000000004631500000000190111800078202511140780780005718000015600009060000238
6019011001800        001020280821000033000000000004632200000000000000000000000004632200000000190111800079202511140790790005718000015700009060000238
6019011001800        001020280920000033000000000004630900000000000000000000000004630900000000190111800080202511140800800005718000015500009060000238
6019011001800        001020281020000033000000000004630900000000000000000000000004630900000000190111800081202511140810810005718000015500009060000238
6019011001800        001020281121000033000000000004630900000000000000000000000004630900000000190111800082202511140820820005718000015500009060000238
6019011001800        001020281220000033000000000004630900000000000000000000000004630900000000190111800083202511140830830005718000015500009060000238
6019011001800        001020290122000033000000000004609200000000000000000000000004609200000000190111800084202511140840840005687000016700008920000238
101901101800014596607818   EVANDRO ESTEVAO CAPASSI                 Cobranca       0008465050000406410000135470000152120000000000001500000000300000470842029012600011798820000099990000000000-14000000152105ONIX 1.0    RUA TITO COLO 30                        JARDIM CHACARA FLORA               17204565JAU                           SP000               014991025097      evandro.manao@hotmail.com                         BELLARI INDUSTRIA E COMERCIO L                                                                                                                   000                                                           000                   19720731AURELIO CAPASSI                         SIRLEI TESTA CAPASSI                    Outros trabalhadores de servicos diverso20240916        20220830        L20240829000470000000298JAVEP VEICULOS PECAS E SERVICOS LTDA    00000100000049722000168465
2019011018000        001020250820000033000000000015210500000000007402000000000015950700000000190118000036202511140430360013547000127900003860000000
2019011018000        001020250922000033000000000015210500000000005729000000000015783400000000190118000037202511140440370013547000127900003860000000
2019011018000        001020251020000033000000000015210500000000004310000000000015641500000000190118000038202511140450380013547000127900003860000000
30190110180009886111LRNK467872    GJK6A55   01292467522  RENEGADE       2022/2022CINZA           JEEP                00000000                                                                                                                                                                                                                                                        000000000000
6019011018000        001020251121000033000000000015210500000000000000000000000015210500000000190118000039202511140460390013547000038600012790000000
6019011018000        001020251222000033000000000015210500000000000000000000000015210500000000190118000040202511140470400013547000038600012790000000
6019011018000        001020260120000033000000000015210500000000000000000000000015210500000000190118000041202511140480410013547000038600012790000000
6019011018000        001020260220000033000000000015210500000000000000000000000015210500000000190118000042202511140490420013547000038600012790000000
6019011018000        001020260320000033000000000015210500000000000000000000000015210500000000190118000043202511140500430013547000038600012790000000
6019011018000        001020260420000033000000000015210500000000000000000000000015210500000000190118000044202511140510440013547000038600012790000000
6019011018000        001020260520000033000000000015210500000000000000000000000015210500000000190118000045202511140520450013547000038600012790000000
6019011018000        001020260622000033000000000015210500000000000000000000000015210500000000190118000046202511140530460013547000038600012790000000
6019011018000        001020260720000033000000000005037600000000000000000000000005037600000000190118000047202511140540470004493000013100004140000000
101901104870005616170828   HENRIQUE DE LIMA E SOUZA                Cobranca       0003732790000305780000152890000178290000006210001800000000300000700842029012600009679032000079992000000000-3200000014261880% ONIX 1.0RUA PAULO DE GODOY BUENO 96             RESIDENCIAL ITAMARATI              13568755SAO CARLOS                    SP000               011997433389      henriquelisouza@hotmail.com                       AUTONOMO                                                                                                                                         000                                                           000                   19640602HELIO GONCALVES DE SOUZA                TEREZA GARCIA DE LIMA E SOUZA           Outros trabalhadores de servicos diverso20241119        20230418        S20241029000000000000298JAVEP VEICULOS PECAS E SERVICOS LTDA    00000100000049722000277694
2019011048700        001020250922000033000000000014261800000000005185000000000014780300000000190118700030202511140440300015289000149300004260000621
2019011048700        001020251020000033000000000014261800000000003900000000000014651800000000190118700031202511140450310015289000149300004260000621
301901104870094DFCAP15JB107382    FJR7D44   01129144752  KICKS          2017/2018CINZA           NISSAN              00000000                                                                                                                                                                                                                                                        000000000000
6019011048700        001020251121000033000000000014261800000000000000000000000014261800000000190118700032202511140460320015289000042600014930000621
6019011048700        001020251222000033000000000014261800000000000000000000000014261800000000190118700033202511140470330015289000042600014930000621
6019011048700        001020260120000033000000000014261800000000000000000000000014261800000000190118700034202511140480340015289000042600014930000621
6019011048700        001020260220000033000000000014261800000000000000000000000014261800000000190118700035202511140490350015289000042600014930000621
6019011048700        001020260320000033000000000014261800000000000000000000000014261800000000190118700036202511140500360015289000042600014930000621
6019011048700        001020260420000033000000000014261800000000000000000000000014261800000000190118700037202511140510370015289000042600014930000621
6019011048700        001020260520000033000000000014261800000000000000000000000014261800000000190118700038202511140520380015289000042600014930000621
6019011048700        001020260622000033000000000014261800000000000000000000000014261800000000190118700039202511140530390015289000042600014930000621
6019011048700        001020260720000033000000000014261800000000000000000000000014261800000000190118700040202511140540400015289000042600014930000621
6019011048700        001020260820000033000000000014261800000000000000000000000014261800000000190118700041202511140550410015289000042600014930000621
6019011048700        001020260921000033000000000014261800000000000000000000000014261800000000190118700042202511140560420015289000042600014930000621
6019011048700        001020261020000033000000000014261800000000000000000000000014261800000000190118700043202511140570430015289000042600014930000621
6019011048700        001020261123000033000000000014261800000000000000000000000014261800000000190118700044202511140580440015289000042600014930000621
6019011048700        001020261221000033000000000014261800000000000000000000000014261800000000190118700045202511140590450015289000042600014930000621
6019011048700        001020270120000033000000000014261800000000000000000000000014261800000000190118700046202511140600460015289000042600014930000621
6019011048700        001020270222000033000000000014261800000000000000000000000014261800000000190118700047202511140610470015289000042600014930000621
6019011048700        001020270322000033000000000014261800000000000000000000000014261800000000190118700048202511140620480015289000042600014930000621
6019011048700        001020270420000033000000000014261800000000000000000000000014261800000000190118700049202511140630490015289000042600014930000621
6019011048700        001020270520000033000000000014261800000000000000000000000014261800000000190118700050202511140640500015289000042600014930000621
6019011048700        001020270621000033000000000014261800000000000000000000000014261800000000190118700051202511140650510015289000042600014930000621
6019011048700        001020270720000033000000000014261800000000000000000000000014261800000000190118700052202511140660520015289000042600014930000621
6019011048700        001020270820000033000000000014261800000000000000000000000014261800000000190118700053202511140670530015289000042600014930000621
6019011048700        001020270920000033000000000014261800000000000000000000000014261800000000190118700054202511140680540015289000042600014930000621
6019011048700        001020271020000033000000000014261800000000000000000000000014261800000000190118700055202511140690550015289000042600014930000621
6019011048700        001020271122000033000000000014261800000000000000000000000014261800000000190118700056202511140700560015289000042600014930000621
6019011048700        001020271220000033000000000014261800000000000000000000000014261800000000190118700057202511140710570015289000042600014930000621
6019011048700        001020280120000033000000000014261800000000000000000000000014261800000000190118700058202511140720580015289000042600014930000621
6019011048700        001020280221000033000000000014261800000000000000000000000014261800000000190118700059202511140730590015289000042600014930000621
6019011048700        001020280320000033000000000014261800000000000000000000000014261800000000190118700060202511140740600015289000042600014930000621
6019011048700        001020280420000033000000000014261800000000000000000000000014261800000000190118700061202511140750610015289000042600014930000621
6019011048700        001020280522000033000000000014261800000000000000000000000014261800000000190118700062202511140760620015289000042600014930000621
6019011048700        001020280620000033000000000014261800000000000000000000000014261800000000190118700063202511140770630015289000042600014930000621
6019011048700        001020280720000033000000000014261800000000000000000000000014261800000000190118700064202511140780640015289000042600014930000621
6019011048700        001020280821000033000000000014261800000000000000000000000014261800000000190118700065202511140790650015289000042600014930000621
6019011048700        001020280920000033000000000014261800000000000000000000000014261800000000190118700066202511140800660015289000042600014930000621
6019011048700        001020281020000033000000000014261800000000000000000000000014261800000000190118700067202511140810670015289000042600014930000621
6019011048700        001020281121000033000000000014261800000000000000000000000014261800000000190118700068202511140820680015289000042600014930000621
6019011048700        001020281220000033000000000014261800000000000000000000000014261800000000190118700069202511140830690015289000042600014930000621
6019011048700        001020290122000033000000000014333000000000000000000000000014333000000000190118700070202511140840700015312000047200015130000621
102025902280078582059353   KELLY VANDERSON OLIVEIRA NUNES          Cobranca       0009854610000145720000150360000177390000000150001550000000600000670802025103000015793785000129990000000000-52000000230590NOVO PRISMA Rua Paulo Gomes da Silva 221            Parque Soledade                    61603070CAUCAIA                       CE000               083987353318      vandersonkelly@hotmail.com                        PROFISSIONAL LIBERAL                                                                                                                             000                                                           000                   19770312JUCELIO CHAVES NUNES                    MARIA DEUSA OLIVEIRA NUNES              Guia de turismo                         20200723        2020021120220118S20200228000000000000246GLOBO BRASIL,CONSORCIOS E SERV LTDA ME  00000100000049720008762752
2020259022800        001020250822000033000000000022388200000000010737000000000023461900000000202592800067202511140780670014572000179700008390000015
3020259022800WV1DB42H7GA016017    PMA7H61   01076225303  AMAROK         2015/2016PRATA           09 - VOLKSWAGEN     20200715                                                                                                                                                                                                                                                        000000000000
4020259022800PESSOAL                                                                                                                       085992766149                   
102026001200071254226672   ELTON ALVES DE OLIVEIRA                 Cobranca       0009740210000129660000130300000152200000000270001550000000600000800802025121800015793785000129990000000000-24700000197841NOVO PRISMA RUA  PALERMO 280                        JARDIM EUROPA                      38414539UBERLANDIA                    MG000               034999610336      eltonalves5533@gmail.com                          DaVita Servicos Medicos                                                                                                                          000                                                           000                   19700125antonio miguel de oliveira              marina alves de oliveira                Tecnico da ciencia da saude humana      20210203        20190228        S20200807000000000000088BLUCON DIVULGACOES LTDA                 00000100000049720008580662
2020260012000        001020251103000033000000000019776300000000004672000000000020243500000000202602000079202511140790790012966000147100007500000027
30202600120009BG148FA0JC406265    QNK0I66   01135618477  S10            2017/2018PRATA           01 - CHEVROLET      20210127                                                                                                                                                                                                                                                        000000000000
4020260012000PESSOAL              eliana                                  .                                                                034996330336                   
502026001200000112953689   ELEANDRO FERREIRA DA COSTA                                                                                                                                 000000000000000000011000000997969918                                                                                RUA UBERABA, 611                                                 37307414SAO PAULO                     SP011000000032699090                                            000000000000000000    RAPHAEL                                 .                                                                0000000009977703360000                                                                                                         0000000000000000000000                                                                                                         0000000000000000000000                                                                                                         0000000000000000000000
6020260012000        001020251202000033000000000019784100000000000000000000000019784100000000202602000080202511140800800013030000073800014250000027
102026002070058659234200   EDERSON PANTOJA DO NASCIMENTO           Cobranca       0009659440000170410000170500000203700000000360001550000000600000580802025121800014846221000122191120000000-5010000024889994% NOVO ONIAL EXPEDITO BEZERRA FALCAO 13           CENTRO                   ANTONIO BE67200000MARITUBA                      PA000               091999838819      cleidecorrea018@gmail.com                          AUTONOMO                                                                                                                                        000                                                           000                   19751111ERALDO TRINDADE DO NASCIMENTO           DOMINGAS PANTOJA DO NASCIMENTO          Consultor e Outros Analistas nao classif20240805        20210227        S20240718000000000000246GLOBO BRASIL,CONSORCIOS E SERV LTDA ME  00000100000049720008960459
2020260020700        001020251103000033000000000024632100000000005820000000000025214100000000202600700057202511140790570017041000208900009930000036
30202600207009BD281B4ANYX58054    RWN2B16   01317649408  STRADA VOLCANO 2022/2022CINZA           02 - FIAT           00000000                                                                                                                                                                                                                                                        000000000000
6020260020700        001020251202000033000000000024889900000000000000000000000024889900000000202600700058202511140800580017050000105400022300000036
102026002130082977470263   DOMINGOS CLEITON OLIVEIRA DO NASCIMENTO Cobranca       0009033350000162520000072800000086340000000000001550000000600000700802025121800016279785000133990000000000000000000115688SPIN LT 1.8 RD TRANSAMAZONICA KM243  MD 2816042, 125PACAJA                   CHACARA   68485000PACAJA                        PA000               094991102916      cleitonn447@gmail.com                             AUTONOMO                      RD TRANSAMAZONICA KM243  MD 2816042, 125                                   68485000PACAJA                        PA094991102916                                                  000                   19850818IRENO PEREIRA DO NASCIMENTO             RAIMUNDA OLIVEIRA DO NASCIMENTO         Consultor e Outros Analistas nao classif20200831        20200206        L20200807000500000000049AUTO CONSORCIO REPR COM E SERVICOS LTDA 00000100000049720008759371
2020260021300        001020251002000033000000000012789300000000004391000000000013228400000000202601300068202511140780680008126000094800004710000000
2020260021300        001020251103000033000000000012789300000000003027000000000013092000000000202601300069202511140790690008126000094800004710000000
30202600213009BGEN69H0LG238680    QVD2J97   01237414404  ONIX           2020/2020PRATA           01 - CHEVROLET      20200820                                                                                                                                                                                                                                                        000000000000
4020260021300PESSOAL              ANTONIO RODRIGUES                       .                                                                000991253597                   
4020260021300PESSOAL              RAIMUNDA O. DO NASCI                    .                                                                000991088203                   
6020260021300        001020251202000033000000000011568800000000000000000000000011568800000000202601300070202511140800700007280000045300009010000000
102026102030013785015000154ALEXANDRE V O TERRAPLEN E TRANSPORTES   Cobranca       0007160600000476280000158760000173840000000000000350000000600000630802026021700019161405000174990000000000-94400000304202TRACKER 1.4 RUA SERGIPE 243                         CENTRO                   SALA A    85260000MANOEL RIBAS                  PR000               043999002960      alexandreogliari@hotmail.com                                                    RUA SERGIPE 243                         CENTRO                   SALA A    85260000MANOEL RIBAS                  PR000                                                           000                   20110527                                                                                                                        20220726        2020112120220519S20220414000000000000029APUCARANA AUTO PECAS LTDA               00000100000049720008907602
2020261020300        001020250910000033000000000030420200000000012675000000000031687700000000202610300058202511140750580015876000055600009520000000
2020261020300        001020251010000033000000000030420200000000009633000000000031383500000000202610300059202511140760590015876000055600009520000000
2020261020300        001020251110000033000000000030420200000000006490000000000031069200000000202610300060202511140770600015876000055600009520000000
302026102030094BB0902MMR049947    BEY9G24   01257741257  SR/FACCHINI SRF2021/2021PRETA           FACCHINI            00000000                                                                                                                                                                                                                                                        000000000000
502026102030007142282908   ALEXANDRE VILMAR OGLIARI                                                                                                                                   000000000000000000043000000999002960alexandreogliari@hotmail.com                                                                                                                                                             000000000000000000                                            000000000000000000                                                                                                             0000000000000000000000                                                                                                         0000000000000000000000                                                                                                         0000000000000000000000                                                                                                         0000000000000000000000
6020261020300        001020251210000033000000000030420200000000000000000000000030420200000000202610300061202511140780610015876000095200005560000000
6020261020300        001020260112000033000000000030420200000000000000000000000030420200000000202610300062202511140790620015876000095200005560000000
6020261020300        001020260210000033000000000027028900000000000000000000000027028900000000202610300063202511140800630014125000085600004650000000
102026200910063810115649   ENILE PEREIRA DE OLIVEIRA               Cobranca       0009478220000086910000086910000102770000000540001550000000600000660802026032700016279785000133990000000000000000000137703SPIN LT 1.8 RUA  NOVA VITORIA 47, 47                NOVA VITORIA                       42802445CAMACARI                      BA0711726429036     071999058450      enilepereira1@hotmail.com                         UNIGEL PLASTICOS S A CANDEIAS RODOVIA  BA-522, SN                                                        43813300CANDEIAS                      BA07138786546                                                   000                   19670205ATAIDE DOURADO DE OLIVEIRA              BELOZINA PEREIRA DE OLIVEIRA            Consultor e Outros Analistas nao classif20201209        20201019        L20201027000532000000249GNC AUTOMOTORES LTDA                    00000100000049720008888748
2020262009100        001020251022000033000000000013770300000000003790000000000014149300000000202629100061202511140750610008691000102700005050000054
30202620091009BGEP69H0LG274940    RCW5H00   01246047869  ONIX           2020/2020VERMELHA        01 - CHEVROLET      20201116                                                                                                                                                                                                                                                        000000000000
4020262009100PESSOAL              CESAR                                   .                                                                00099087969                    
6020262009100        001020251124000033000000000013770300000000000000000000000013770300000000202629100062202511140760620008691000050500010270000054
6020262009100        001020251222000033000000000013770300000000000000000000000013770300000000202629100063202511140770630008691000050500010270000054
6020262009100        001020260122000033000000000013770300000000000000000000000013770300000000202629100064202511140780640008691000050500010270000054
6020262009100        001020260223000033000000000013770300000000000000000000000013770300000000202629100065202511140790650008691000050500010270000054
6020262009100        001020260323000033000000000013884100000000000000000000000013884100000000202629100066202511140800660008723000049500010900000054
102026201680070600104672   FRANCISLEY FRANCISCO FERNANDES          Cobranca       0009600640000066520000066520000078010000000000001550000000600000740802026032700016279785000133990000000000-13400000104525SPIN LT 1.8 SCLRN 711                               ASA NORTE                AP 201 ENT70750553BRASILIA                      DF000               061996065619      francisleyfernandes@gmail.com                     SECRETARIA DA EDUCAÇĂO        AREA ESPECIAL NORTE 312                 ASA NORTE                          70750553BRASILIA                      DF000                                                           000                   19710720JOAQUIM FRANCISCO PEREIRA               LUZIA FERNANDES PEREIRA                 Professor do ensino medio               20230302        20200131        L20201027000560000000278RAFAEL CARDOSO DE ANDRADE ME            00000100000049720008754035
2020262016800        001020251022000033000000000010452500000000002892000000000010741700000000202626800069202511140750690006652000076500003840000000
30202620168009BWBH6BF7N4041026    RET9E42   01291718270  T CROSS SENSE T2022/2022BRANCA          09 - VOLKSWAGEN     00000000                                                                                                                                                                                                                                                        000000000000
4020262016800PESSOAL              PAULO HENRIQUE                          .                                                                061992189900                   
4020262016800PESSOAL                                                                                                                       061996286950                   
4020262016800PESSOAL                                                                                                                       061982544444                   
4020262016800PESSOAL                                                                                                                       061996322897                   
6020262016800        001020251124000033000000000010452500000000000000000000000010452500000000202626800070202511140760700006652000038400007650000000
6020262016800        001020251222000033000000000010452500000000000000000000000010452500000000202626800071202511140770710006652000038400007650000000
6020262016800        001020260122000033000000000010452500000000000000000000000010452500000000202626800072202511140780720006652000038400007650000000
6020262016800        001020260223000033000000000010452500000000000000000000000010452500000000202626800073202511140790730006652000038400007650000000
6020262016800        001020260323000033000000000010793000000000000000000000000010793000000000202626800074202511140800740006686000045000009190000000
102026201980023701579000115Y E PORCIUNCULA DA SILVA FEITOSA        Cobranca       00090682600001470600001470600001735300000000000012000000006000006808020260327000164185160001391399700000000-960000024144979% S10 ADVARUA  JOAO DE OLIVEIRA RAMOS 27          DONA DOM                 TERREO    55192509SANTA CRUZ DO CAPIBARIBE      PE000               081999997330      animalcenter@hotmail.com                                                                                                                                                                           000                                                           000                   20151119                                                                                                                        20251001        20200817        S20250327000000000000220FEDERALLE MULTIPLOS NEGOCIOS LTDA       00000100000049720008855251
2020262019800        001020251022000033000000000024144900000000006680000000000024812900000000202629800063202511140750630014706000176500008820000000
30202620198009886711AJTKN82476                           COMMANDER      2025/2026BRANCO          JEEP                00000000                                                                                                                                                                                                                                                        000000000000
502026201980002844035477   YALE ERIKA PORCIUNCULA DA SILVA FEITOSA                                                                                                                    000000000000000000081000000988734847yale.vet2016@gmail.com                                                                                                                                                                   000000000000000000                                            000000000000000000                                                                                                             0000000000000000000000                                                                                                         0000000000000000000000                                                                                                         0000000000000000000000                                                                                                         0000000000000000000000
6020262019800        001020251124000033000000000024144900000000000000000000000024144900000000202629800064202511140760640014706000088200017650000000
6020262019800        001020251222000033000000000024144900000000000000000000000024144900000000202629800065202511140770650014706000088200017650000000
6020262019800        001020260122000033000000000024144900000000000000000000000024144900000000202629800066202511140780660014706000088200017650000000
6020262019800        001020260223000033000000000024144900000000000000000000000024144900000000202629800067202511140790670014706000088200017650000000
6020262019800        001020260323000033000000000032267900000000000000000000000032267900000000202629800068202511140800680019650000120300023380000000
102026202180037934675000118KATIA TEODORO CONSTRUTORA LTDA          Cobranca       0009346070000108980000108980000122940000000000000900000000600000470802026032700018513850000160990000000000000000000197921SPIN PREMIERRUA MINISTRO CUNHA CANTO 131            CENTRO                             13800056MOGI MIRIM                    SP000               011971467448      k10financeiro@gmail.com                                                         RUA MINISTRO CUNHA CANTO 131            CENTRO                             13800056MOGI MIRIM                    SP01171467448                                                   000                   20200731                                                                                                                        20220630        20220520        L20220531000560000000033ARTVEL SUL SERVICOS E PECAS LTDA        00000100000049722000123471
2020262021800        001020251022000033000000000019792100000000005475000000000020339600000000202621800042202511140750420010898000075500006410000000
30202620218009BD281B4ANYX46643    RUL0D75   01301595001  FIAT STRADA VOL2022/2022BRANCA          02 - FIAT           00000000                                                                                                                                                                                                                                                        000000000000
502026202180007280355617   ROSERIA CARVALHO FIRMO                                                                                                                                     000000000000000000035000000099496800roseria1@gmail.com                                                                                                                                                                       000000000000000000                                            000000000000000000                                                                                                             0110000009832907490000                                                                                                         0190000009941535080000                                                                                                         0350000000999539630000                                                                                                         0350000009988868000000
6020262021800        001020251124000033000000000019792100000000000000000000000019792100000000202621800043202511140760430010898000064100007550000000
6020262021800        001020251222000033000000000019792100000000000000000000000019792100000000202621800044202511140770440010898000064100007550000000
6020262021800        001020260122000033000000000019792100000000000000000000000019792100000000202621800045202511140780450010898000064100007550000000
6020262021800        001020260223000033000000000019792100000000000000000000000019792100000000202621800046202511140790460010898000064100007550000000
6020262021800        001020260323000033000000000019801800000000000000000000000019801800000000202621800047202511140800470010905000066100007340000000
102026300840057895589172   RAITELENE FALCAO SANTOS                 Cobranca       0009049030000135780000135780000160180000000980001550000000600000760802026042800015793785000129990000000000-22100000208223NOVO PRISMA AVENIDA  JOSE CARRION 744               MORADA DA PAZ            CASA      68550315REDENCAO                      PA000               094992781865      raitelenefalcao1972@gmail.com                     AUTONOMA                                                                                                                                         000                                                           000                   19700614raimundo alves vogado                   ameniza alves falcao                    Consultor e Outros Analistas nao classif20240829        20200108        S20230929000000000000308JUARY AUTOMOVEIS LTDA                   00000100000049720008736885
2020263008400        001020251020000033000000000020822300000000005864000000000021408700000000202638400070202511140740700013578000155600007860000098
30202630084009BGEX76H0SB127376    SZG3D86   01410388872  TRACKER T A    2024/2025AZUL            01 - CHEVROLET      20240816                                                                                                                                                                                                                                                        000000000000
4020263008400PESSOAL                                                                                                                       094992542740                   
6020263008400        001020251121000033000000000020822300000000000000000000000020822300000000202638400071202511140750710013578000078600015560000098
6020263008400        001020251222000033000000000020822300000000000000000000000020822300000000202638400072202511140760720013578000078600015560000098
6020263008400        001020260120000033000000000020822300000000000000000000000020822300000000202638400073202511140770730013578000078600015560000098
6020263008400        001020260220000033000000000020822300000000000000000000000020822300000000202638400074202511140780740013578000078600015560000098
6020263008400        001020260320000033000000000020822300000000000000000000000020822300000000202638400075202511140790750013578000078600015560000098
6020263008400        001020260420000033000000000021437200000000000000000000000021437200000000202638400076202511140800760013643000086000018900000098
102026301510089131320520   BRUNO MACHADO ANDRADE                   Cobranca       0008849650000063920000063920000075420000000000001200000000600000780802026042800016065607000136149210000000000000000102685NOVA S10 LT AVENIDA SANTOS DUMONT 8                 PORTĂO                   COND PQ EN42712901LAURO DE FREITAS              BA000               07199993852       cerqueiragm@bol.com.br                            AUTONOMO                                                                                                                                         07199993852                                                   000                   19760223JAAR ANDRADE SAMPAIO                    NEUSA MACHADO ANDRADE                   Medico                                  20220103        2019110620211207L20211126000400000000130CERQUEIRA E DANTAS LTDA ME              00000100000049720008699618
2020263015100        001020251020000033000000000010268500000000002910000000000010559500000000202635100072202511140740720006392000076700003830000000
30202630151009BWAG45U0NT102445    RDP5J80   01286466188  NOVO GOL 1.0   2021/2022BRANCO          09 - VOLKSWAGEN     00000000                                                                                                                                                                                                                                                        000000000000
30202630151009BWAL45U7NT069410    RDP8J22   01286462042  NOVO GOL  1.6 A2021/2022BRANCO CRISTAL  09 - VOLKSWAGEN     00000000                                                                                                                                                                                                                                                        000000000000
4020263015100PESSOAL              CERQUEIRA                               .                                                                000999894008                   
4020263015100PESSOAL                                                                                                                       079999894008                   
6020263015100        001020251121000033000000000010268500000000000000000000000010268500000000202635100073202511140750730006392000038300007670000000
6020263015100        001020251222000033000000000010268500000000000000000000000010268500000000202635100074202511140760740006392000038300007670000000
6020263015100        001020260120000033000000000010268500000000000000000000000010268500000000202635100075202511140770750006392000038300007670000000
6020263015100        001020260220000033000000000010268500000000000000000000000010268500000000202635100076202511140780760006392000038300007670000000
6020263015100        001020260320000033000000000010268500000000000000000000000010268500000000202635100077202511140790770006392000038300007670000000
6020263015100        001020260420000033000000000010226200000000000000000000000010226200000000202635100078202511140800780006373000039200007460000000
102026301730018668437291   REGINALDO DO CARMO LOBATO COSTALAT      Cobranca       0009269770000111910000111910000131780000000750001550000000600000570802026042800014530311000119591040000000-5380000015760092% NOVO ONIPASSAGEM COELHINHO 126                  PEDREIRA                           66085780BELEM                         PA000               000               rafaelcostalat19@gmail.com                        POLICIA MILITAR DO ESTADO DO P                                                                                                                   000                                                           000                   19610715JOAO BATISTA COSTALAT                   MARIA HELENA LOBATO COSTALAT            Policial Militar                        20211103        2021081620211005L20210825000460000000207ELDORADO VEICULOS E PECAS LTDA          00000100000049722000001615
2020263017300        001020251020000033000000000015760000000000004440000000000016204000000000202637300051202511140740510011191000126500006470000075
30202630173009BGEN48H0NG124527    RWL4H49   01280862804  ONIX LTZ TURBO 2021/2022BRANCO          01 - CHEVROLET      20211027                                                                                                                                                                                                                                                        000000000000
4020263017300PESSOAL                                                                                                                       091982590959                   
6020263017300        001020251121000033000000000015760000000000000000000000000015760000000000202637300052202511140750520011191000064700012650000075
6020263017300        001020251222000033000000000015760000000000000000000000000015760000000000202637300053202511140760530011191000064700012650000075
6020263017300        001020260120000033000000000015760000000000000000000000000015760000000000202637300054202511140770540011191000064700012650000075
6020263017300        001020260220000033000000000015760000000000000000000000000015760000000000202637300055202511140780550011191000064700012650000075
6020263017300        001020260320000033000000000015760000000000000000000000000015760000000000202637300056202511140790560011191000064700012650000075
6020263017300        001020260420000033000000000008567900000000000000000000000008567900000000202637300057202511140800570005918000033900008320000075
102026301890090077920406   MARCELO FERREIRA LIMA                   Cobranca       0009164960000069610000069610000082100000000500001550000000600000760802026042800016279785000133990000000000-12100000110009SPIN LT 1.8 RUA MAJ JOSE RUFINO DA CUNHA 92         CENTRO                             56200000OURICURI                      PE000               087991122829      marcelolimacantor01@gmail.com                     AUTONOMO COMERCIANTE                                                                                                                             000                                                           000                   19740702JOSE PEREIRA LIMA                       EURIDICE FERREIRA LIMA                  AUTONOMO                                20200508        2019122720230727L20200227000579000000246GLOBO BRASIL,CONSORCIOS E SERV LTDA ME  00000100000049720008732531
2020263018900        001020251020000033000000000011000900000000003098000000000011310700000000202638900070202511140740700006961000079700004020000050
30202630189009BRBL3HE6K0177259    QPM5J09   01170486255  TOYOTA COROLLA 2018/2019PRETO           TOYOTA              20200319                                                                                                                                                                                                                                                        000000000000
6020263018900        001020251121000033000000000011000900000000000000000000000011000900000000202638900071202511140750710006961000040200007970000050
6020263018900        001020251222000033000000000011000900000000000000000000000011000900000000202638900072202511140760720006961000040200007970000050
6020263018900        001020260120000033000000000011000900000000000000000000000011000900000000202638900073202511140770730006961000040200007970000050
6020263018900        001020260220000033000000000011000900000000000000000000000011000900000000202638900074202511140780740006961000040200007970000050
6020263018900        001020260320000033000000000011000900000000000000000000000011000900000000202638900075202511140790750006961000040200007970000050
6020263018900        001020260420000033000000000011100200000000000000000000000011100200000000202638900076202511140800760006942000046100008310000050
102026302370006232322436   ANDRE OLIVEIRA DA SILVA                 Cobranca       00058157900002870800001435400001623100000000000012000000006000004808020260428000207829380001761265900000000-8800000285871S10 LT 2.5 FRUA DEZENOVE DE MARCO 109               CORREGO DO JENIPAPO      CASA      52091121RECIFE                        PE000               081998333757      ninokethily.bc@hotmail.com                        ANDRE OLIVEIRA DA SILVA EIRELI                                                                                                                   000                                                           000                   19851025MIGUEL JOSE DA SILVA                    SOCORRO MARIA TAVARES DE OLIVEIRA       Outros trabalhadores de servicos diverso20220628        20220517        L20220531000380100000066AUTONUNES LTDA                          00000100000049722000121381
2020263023700        001020250922000033000000000028587100000000010767000000000029663800000000202633700041202511140730410014354000105200008250000000
2020263023700        001020251020000033000000000028587100000000008099000000000029397000000000202633700042202511140740420014354000105200008250000000
30202630237008AJGC3DD2K0040425    PCL6817   01181328842  TOYOTA HILUX CD2018/2019PRATA           TOYOTA              00000000                                                                                                                                                                                                                                                        000000000000
6020263023700        001020251121000033000000000028587100000000000000000000000028587100000000202633700043202511140750430014354000082500010520000000
6020263023700        001020251222000033000000000028587100000000000000000000000028587100000000202633700044202511140760440014354000082500010520000000
6020263023700        001020260120000033000000000028587100000000000000000000000028587100000000202633700045202511140770450014354000082500010520000000
6020263023700        001020260220000033000000000028587100000000000000000000000028587100000000202633700046202511140780460014354000082500010520000000
6020263023700        001020260320000033000000000028587100000000000000000000000028587100000000202633700047202511140790470014354000082500010520000000
6020263023700        001020260420000033000000000028657500000000000000000000000028657500000000202633700048202511140800480014378000082000010730000000
102026401220033486468000197FOCUS SERVICOS DE ENGENHARIA EIRELI     Cobranca       000916354000018872000009436000011052000000000000155000000060000055080202606170001722098100014173647000000-204100000156648CRUZE SEDAN RUA PANTANAL 150                        NOVA PARNAMIRIM                    59150015PARNAMIRIM                    RN000               084996093223      dioggoaraujo@hotmail.com                                                        RUA PANTANAL 150                        NOVA PARNAMIRIM                    59150015PARNAMIRIM                    RN000                                                           000                   20190429                                                                                                                        20221130        20211111        L20220823000507800000246GLOBO BRASIL,CONSORCIOS E SERV LTDA ME  00000100000049722000036589
2020264012200        001020251013000033000000000015664800000000004804000000000016145200000000202642200047202511140720470009436000107000005460000000
2020264012200        001020251112000033000000000015664800000000003237000000000015988500000000202642200048202511140730480009436000107000005460000000
30202640122009882261RMPKE96341    RGL7G00   01329983600  NOVO FIAT TORO 2022/2023PRATA BILLET    02 - FIAT           20221124                                                                                                                                                                                                                                                        000000000000
502026401220006941530448   ANTONIO DIOGO ARAUJO                                                                                                                                       000000000000000000084000000996093223dioggoaraujo@hotmail.com                                                                                                                                                                 000000000000000000                                            000000000000000000                                                                                                             0000000000000000000000                                                                                                         0000000000000000000000                                                                                                         0000000000000000000000                                                                                                         0000000000000000000000
6020264012200        001020251212000033000000000015664800000000000000000000000015664800000000202642200049202511140740490009436000054600010700000000
6020264012200        001020260112000033000000000015664800000000000000000000000015664800000000202642200050202511140750500009436000054600010700000000
6020264012200        001020260212000033000000000015664800000000000000000000000015664800000000202642200051202511140760510009436000054600010700000000
6020264012200        001020260312000033000000000015664800000000000000000000000015664800000000202642200052202511140770520009436000054600010700000000
6020264012200        001020260413000033000000000015664800000000000000000000000015664800000000202642200053202511140780530009436000054600010700000000
6020264012200        001020260512000033000000000015664800000000000000000000000015664800000000202642200054202511140790540009436000054600010700000000
6020264012200        001020260612000033000000000013744200000000000000000000000013744200000000202642200055202511140800550008278000047000009490000000
102026401570049147480297   SILVIO FARIAS DA SILVEIRA               Cobranca       00088327900002592200001296100001530200000012000015500000006000008008020260617000157937850001299900000000000-3900000198913NOVO PRISMA RUA  JOAO DE SOUZA, 12                  DISTRITO INDUSTRIAL                67030670ANANINDEUA                    PA000               091988353319      diaconosilviosilveira@gmail.com                   TRT 8 REGIAO                  RUA  CLAUDIO SANDERS, 677               CENTRO                             67030325ANANINDEUA                    PA09132553232                                                   000                   19741126BENEDITO BERNARDES DA SILVEIRA          LUZIA DE FARIAS DA SILVEIRA             Consultor e Outros Analistas nao classif20200701        2019102220200619S20200417000000000000049AUTO CONSORCIO REPR COM E SERVICOS LTDA 00000100000049720008688892
2020264015700        001020251013000033000000000019891300000000006052000000000020496500000000202645700072202511140720720012961000147100007500000120
2020264015700        001020251112000033000000000019891300000000004079000000000020299200000000202645700073202511140730730012961000147100007500000120
302026401570094DVCUD40FJ882446    QDB3277   01062943365  FRONTIER       2015/2015PRATA           NISSAN              20200629                                                                                                                                                                                                                                                        000000000000
4020264015700PESSOAL              ANDRE REIS                              .                                                                000982832442                   
6020264015700        001020251212000033000000000019891300000000000000000000000019891300000000202645700074202511140740740012961000075000014710000120
6020264015700        001020260112000033000000000019891300000000000000000000000019891300000000202645700075202511140750750012961000075000014710000120
6020264015700        001020260212000033000000000019891300000000000000000000000019891300000000202645700076202511140760760012961000075000014710000120
6020264015700        001020260312000033000000000019891300000000000000000000000019891300000000202645700077202511140770770012961000075000014710000120
6020264015700        001020260413000033000000000019891300000000000000000000000019891300000000202645700078202511140780780012961000075000014710000120
6020264015700        001020260512000033000000000019891300000000000000000000000019891300000000202645700079202511140790790012961000075000014710000120
6020264015700        001020260612000033000000000019934300000000000000000000000019934300000000202645700080202511140800800013036000072100014580000120
102026402400085113131504   LUAN CARVALHO MOTTA DE MENEZES          Cobranca       0008736520000378420000126140000147380000001290001550000000600000390802026061700017220981000141736470000000280700000208887CRUZE SEDAN AV JOSÉ LEON 2140                       CIDADE DOS FUNCIONÁRIOS  CASA 8    60822676FORTALEZA                     CE000               08597737737       luancmm1989@gmail.com                             LM CONSULTORIA EM MARKETING                                                                                                                      000                                                           000                   19890731ANTONIO JULIO DE MENEZES                MAGALI CARVALHO M DE MENEZES            Outros trabalhadores de servicos diverso20230510        20230331        L20230425000403633000249GNC AUTOMOTORES LTDA                    00000100000049722000268221
2020264024000        001020250912000033000000000020888700000000008489000000000021737600000000202644000030202511140710300012614000127300007220000129
2020264024000        001020251013000033000000000020888700000000006350000000000021523700000000202644000031202511140720310012614000127300007220000129
2020264024000        001020251112000033000000000020888700000000004279000000000021316600000000202644000032202511140730320012614000127300007220000129
3020264024000WDCTG4DW2FJ115453    QGA4A33   01048876931  M.BENZ GLA200  2015/2015PRETA           MERCEDES BENZ       00000000                                                                                                                                                                                                                                                        000000000000
6020264024000        001020251212000033000000000020888700000000000000000000000020888700000000202644000033202511140740330012614000072200012730000129
6020264024000        001020260112000033000000000020888700000000000000000000000020888700000000202644000034202511140750340012614000072200012730000129
6020264024000        001020260212000033000000000020888700000000000000000000000020888700000000202644000035202511140760350012614000072200012730000129
6020264024000        001020260312000033000000000020888700000000000000000000000020888700000000202644000036202511140770360012614000072200012730000129
6020264024000        001020260413000033000000000020888700000000000000000000000020888700000000202644000037202511140780370012614000072200012730000129
6020264024000        001020260512000033000000000020888700000000000000000000000020888700000000202644000038202511140790380012614000072200012730000129
6020264024000        001020260612000033000000000020917200000000000000000000000020917200000000202644000039202511140800390012644000070200012830000129
102026500330008787773422   ELIAS PEDRO SALES JUNIOR                Cobranca       000893220000014316000007158000008405000000000000155000000060000071080202607220001722098100014173647000000-989400000119130CRUZE SEDAN RUA COUTO MAGALHĂES 58                  MAURÍCIO DE NASSAU       CASA      55014280CARUARU                       PE000               081998297846      eliasjrsales@gmail.com                            COMERCIANTE AUTONOMO                                                                                                                             000                                                           000                   19901015ELIAS PEDRO SALES                       MARIAZUCLEIDE SOARES SALES              Dirigente ou administrador religiosa    20230803        20200912        S20230623000000000000066AUTONUNES LTDA                          00000100000049720008869215
2020265003300        001020250917000033000000000011913000000000004686000000000012381600000000202653300061202511140700610007158000083200004150000000
2020265003300        001020251017000033000000000011913000000000003495000000000012262500000000202653300062202511140710620007158000083200004150000000
30202650033009BD376A31PYB30636    SNN1C95   01364531213  FASTBACK IMPETU2023/2023PRETO VULVANO   02 - FIAT           00000000                                                                                                                                                                                                                                                        000000000000
4020265003300PESSOAL              CAMILA SALES                            .                                                                000981850426                   
6020265003300        001020251117000033000000000011913000000000000000000000000011913000000000202653300063202511140720630007158000041500008320000000
6020265003300        001020251217000033000000000011913000000000000000000000000011913000000000202653300064202511140730640007158000041500008320000000
6020265003300        001020260119000033000000000011913000000000000000000000000011913000000000202653300065202511140740650007158000041500008320000000
6020265003300        001020260217000033000000000011913000000000000000000000000011913000000000202653300066202511140750660007158000041500008320000000
6020265003300        001020260317000033000000000011913000000000000000000000000011913000000000202653300067202511140760670007158000041500008320000000
6020265003300        001020260417000033000000000011913000000000000000000000000011913000000000202653300068202511140770680007158000041500008320000000
6020265003300        001020260518000033000000000011913000000000000000000000000011913000000000202653300069202511140780690007158000041500008320000000
6020265003300        001020260617000033000000000011913000000000000000000000000011913000000000202653300070202511140790700007158000041500008320000000
6020265003300        001020260717000033000000000011972500000000000000000000000011972500000000202653300071202511140800710007165000041900008630000000
102026500820028817635000103GIFFONI TECNOLOGIA LTDA                 Cobranca       0008639000000136840000136840000157350000000000000900000000600000790802026072200014948850000129990000000000000000000204539NOVO PRISMA JARDIM SANTA HELENA 05                  BROTAS                             40290020SALVADOR                      BA000               071988122711      tiagorg2@gmail.com                                                                                                                                                                                 000                                                           000                   20171008                                                                                                                        20250731        20191224        S20250724000000000000410PARAGUASSU VEICULOS SA                  00000100000049720008731768
2020265008200        001020251017000033000000000020453900000000006000000000000021053900000000202658200070202511140710700013684000123100008200000000
302026500820093YHJD207TJ328261    TGZ9F17   01450104506  DUSTER INTP MR 2025/2026MARRON          08 - RENAULT        00000000                                                                                                                                                                                                                                                        000000000000
502026500820001077349580   TIAGO RODRIGUES GIFFONI                                                                                                                                    000000000000000000000000000000000000tiagorg2@gmail.com                                                                                                                                                                       000000000000000000                                            000000000000000000                                                                                                             0000000000000000000000                                                                                                         0000000000000000000000                                                                                                         0000000000000000000000                                                                                                         0000000000000000000000
6020265008200        001020251117000033000000000020453900000000000000000000000020453900000000202658200071202511140720710013684000082000012310000000
6020265008200        001020251217000033000000000020453900000000000000000000000020453900000000202658200072202511140730720013684000082000012310000000
6020265008200        001020260119000033000000000020453900000000000000000000000020453900000000202658200073202511140740730013684000082000012310000000
6020265008200        001020260217000033000000000020453900000000000000000000000020453900000000202658200074202511140750740013684000082000012310000000
6020265008200        001020260317000033000000000020453900000000000000000000000020453900000000202658200075202511140760750013684000082000012310000000
6020265008200        001020260417000033000000000020453900000000000000000000000020453900000000202658200076202511140770760013684000082000012310000000
6020265008200        001020260518000033000000000020453900000000000000000000000020453900000000202658200077202511140780770013684000082000012310000000
6020265008200        001020260617000033000000000020453900000000000000000000000020453900000000202658200078202511140790780013684000082000012310000000
6020265008200        001020260717000033000000000019411400000000000000000000000019411400000000202658200079202511140800790012950000080800011750000000
102026500870030504748823   KARLA WANESSA COSTA DE ALMEIDA          Cobranca       0008073040000129660000129660000151870000000000001550000000600000800802026072200015793785000129990000000000000000000197416NOVO PRISMA RUA JACOFER 161                         JARDIM PEREIRA LEITE     AP 211 TOR02712070Săo Paulo                     SP000               011992140432      chippersbr@gmail.com                                                                                                                                                                               000                                                           000                   19820617CARLOS ALBERTO SANTOS DE ALMEIDA        JANDYRA COSTA DE ALMEIDA                Fisioterapeuta                          20200925        2019112520220321S20200221000000000000029APUCARANA AUTO PECAS LTDA               00000100000049720008711687
2020265008700        001020251017000033000000000019741600000000005791000000000020320700000000202658700071202511140710710012966000147100007500000000
6020265008700        001020251117000033000000000019741600000000000000000000000019741600000000202658700072202511140720720012966000075000014710000000
6020265008700        001020251217000033000000000019741600000000000000000000000019741600000000202658700073202511140730730012966000075000014710000000
6020265008700        001020260119000033000000000019741600000000000000000000000019741600000000202658700074202511140740740012966000075000014710000000
6020265008700        001020260217000033000000000019741600000000000000000000000019741600000000202658700075202511140750750012966000075000014710000000
6020265008700        001020260317000033000000000019741600000000000000000000000019741600000000202658700076202511140760760012966000075000014710000000
6020265008700        001020260417000033000000000019741600000000000000000000000019741600000000202658700077202511140770770012966000075000014710000000
6020265008700        001020260518000033000000000019741600000000000000000000000019741600000000202658700078202511140780780012966000075000014710000000
6020265008700        001020260617000033000000000019741600000000000000000000000019741600000000202658700079202511140790790012966000075000014710000000
6020265008700        001020260717000033000000000016932500000000000000000000000016932500000000202658700080202511140800800011173000063200012210000000
102026600640071048081591   MARCOS SANTOS DA SILVA                  Cobranca       0009756470000243770000153680000180280000000250001550000000600000670802026102700015793785000129990000000000-39000000234347ONIX PLUS TUQN 23 CONJUNTO 6 7                      RIACHO FUNDO II                    71881796BRASILIA                      DF077988041942      077999630281      marcoslampeja@hotmail.com                         POLICIA MILITAR DA BAHIA                                                                                                                         000                                                           000                   19730407VALDOMIRO DOMINGOS DA SILVA             MIRALVA MARIA SANTOS                    Consultor e Outros Analistas nao classif20250422        20200401        L20250327000120000000216CONSORCIO FACIL TELEMARKETING EIRELI    00000100000049720008794833
2020266006400        001020250922000033000000000023434700000000008814000000000024316100000000202666400066202511140670660015368000174700008880000025
2020266006400        001020251022000033000000000013751700000000003796000000000014131300000000202666400067202511140680670009009000102400005210000025
