0061074175202605040081212216001600JOAO BARBOSA                                                          SERASA-CONVEM04004912E000400437789202                                                                                                                                                                                                                                                                                                                                                                                                                                                                    0000001
1E0001272026022020260320C3     F200001172009287702                                                       ALEXANDRE GUTIERRE VIEIRA                                             19700703                                                                                                                                            RUA RIO BRANCO-BARAO DO 2194                                     PRESIDENTE PRUDENTE      SP190150110000000002279090000000847630259000000000J1049937055000111GMAC ADMINISTRADORA DE CONSORCIO LTDA         5016                                                               0000002
1E0001272026031720271217C3     F200000409778150202                                                       ROSIMARE SALUSTIANO SANTOS                                            19880318                                                                                                                                            RUA FRANCISCO ASSIS OLIVEIRA 129                                 AQUIDABă                 SE497900000000000001687900000000847650324000000000J1049937055000111GMAC ADMINISTRADORA DE CONSORCIO LTDA         5016                                                               0000003
1E0001272026031700000000C3     F200003727526386602                                                       ROGERIO GALBIATI BARBOSA                                              19890504                                                                                                                                            AV ANTONIO STRINGUETA 580                                        GUARARAPES               SP167000000000000000000000000000960090805000000000J1049937055000111GMAC ADMINISTRADORA DE CONSORCIO LTDA         5016                                                               0000004
1E0001272026042020260320C3     F200007496531065902                                                       JOSE ANTONIO DOS SANTOS                                               19600418                                                                                                                                            TRAVESSA JOAO PEDRO ALVES 78                                     FORMIGA                  MG355700000000000000607130000000848180462000000000J1049937055000111GMAC ADMINISTRADORA DE CONSORCIO LTDA         5016                                                               0000005
1E0001272026042020260520C3     J103244626400016002                                                       RA MOTORS LTDA                                                        00000000                                                                                                                                            AVENIDA CARMINDO DE CAMPOS 773                                   CUIABá                   MT780703950000000003715360000000847630664000000000J1049937055000111GMAC ADMINISTRADORA DE CONSORCIO LTDA         5016                                                               0000006
1E0001272026042020260520C3     F200008284452618702                                                       RODRIGO ARRUDA BARROSO                                                00000000                                                                                                                                                                                                             CUIABá                   MT000000000000000003715360000000847630664000000000J1049937055000111GMAC ADMINISTRADORA DE CONSORCIO LTDA         5016                                                               0000007
1E0001272026042020260520C3     J103244626400016002                                                       RA MOTORS LTDA                                                        00000000                                                                                                                                            AVENIDA CARMINDO DE CAMPOS 773                                   CUIABá                   MT780703950000000003302520000000847630623000000000J1049937055000111GMAC ADMINISTRADORA DE CONSORCIO LTDA         5016                                                               0000008
1E0001272026042020260520C3     F200008284452618702                                                       RODRIGO ARRUDA BARROSO                                                00000000                                                                                                                                                                                                             CUIABá                   MT000000000000000003302520000000847630623000000000J1049937055000111GMAC ADMINISTRADORA DE CONSORCIO LTDA         5016                                                               0000009
1E0001272026042020260520C3     J103244626400016002                                                       RA MOTORS LTDA                                                        00000000                                                                                                                                            AVENIDA CARMINDO DE CAMPOS 773                                   CUIABá                   MT780703950000000003955050000000847630308000000000J1049937055000111GMAC ADMINISTRADORA DE CONSORCIO LTDA         5016                                                               0000010
1E0001272026042020260520C3     F200008284452618702                                                       RODRIGO ARRUDA BARROSO                                                00000000                                                                                                                                                                                                             CUIABá                   MT000000000000000003955050000000847630308000000000J1049937055000111GMAC ADMINISTRADORA DE CONSORCIO LTDA         5016                                                               0000011
1E0001272026041020300810C3     F200000182112942302                                                       NOEL MESQUITA DE OLIVEIRA NETO                                        19930405                                                                                                                                            RUA  ANISIO TEIXEIRA 929                                         EXTREMOZ                 RN595750000000000002586680000000270090212000000000J1049937055000111GMAC ADMINISTRADORA DE CONSORCIO LTDA         5016                                                               0000012
1E0001272026042220260323C3     F200009902491812002                                                       LOURDES HENRIQUETA BATISTA                                            19620101                                                                                                                                            FAZENDA PASSA QUATRO SN                                          BELA VISTA DE GOIáS      GO752400000000000003258190000000960200468000000000J1049937055000111GMAC ADMINISTRADORA DE CONSORCIO LTDA         5016                                                               0000013
1E0001272026042220260323C3     F200009201779712002                                                       ALINE REGINA RODRIGUES                                                00000000                                                                                                                                                                                                             BELA VISTA DE GOIáS      GO000000000000000003258190000000960200468000000000J1049937055000111GMAC ADMINISTRADORA DE CONSORCIO LTDA         5016                                                               0000014
1E0001272026042220261023C3     F200005048285085002                                                       JOAO PAULO DE ANDRADE FERREIRA                                        20040924                                                                                                                                            RUA RITA DE CÁSSIA REVOREDO DE PARANAGUÁ                         JUNDIAí                  SP132121500000000004553350000000847340818000000000J1049937055000111GMAC ADMINISTRADORA DE CONSORCIO LTDA         5016                                                               0000015
1E0001272026042220261023C3     F200006186085996802                                                       JOSE DE OLIVEIRA FERREIRA                                             00000000                                                                                                                                                                                                             JUNDIAí                  SP000000000000000004553350000000847340818000000000J1049937055000111GMAC ADMINISTRADORA DE CONSORCIO LTDA         5016                                                               0000016
1E0001272026021700000000C3     F200003591964484202                                                       GUSTAVO DOS SANTOS GREJO                                              19860630                                                                                                                                            RUA WALQUIRIO FERREIRA DO NASCIMENTO 161                         OCAUçU                   SP175403060000000000000000000000701910489000000000J1049937055000111GMAC ADMINISTRADORA DE CONSORCIO LTDA         5016                                                               0000017
1E0001272024051020260410C3     F200004704176185102                                                       GABRIELA FERREIRA MORAIS                                              19971029                                                                                                                                            RUA  MINAS GERAIS, 704                                           GARçA                    SP174000480000000001035200000000701950379000000000J1049937055000111GMAC ADMINISTRADORA DE CONSORCIO LTDA         5016                                                               0000018
1E0001272026021720261117C3     F200000231965222102                                                       AUREA BYANCA ALMEIDA LOBATO                                           00000000                                                                                                                                            AVENIDA RAIMUNDO DE SOUZA MESQUITA, 404                          MACAPá                   AP689050100000000003753730000000847320597000000000J1061074175000138MAPFRE SEGUROS GERAIS S.A.                    5015                                                               0000019
1E0001272026031220280312C3     F200004765171884402                                                       ANA JULIA PANEGALLI PAIVA                                             20010921                                                                                                                                            RUA PRINCESA ISABEL 197                                          JAú                      SP172075200000000001734730000000847710215000000000J1061074175000138MAPFRE SEGUROS GERAIS S.A.                    5015                                                               0000020
1E0001272026041120270111C3     F200005758881325302                                                       EVERALDO DE CRISTO MIRANDA                                            19740708                                                                                                                                            RUA MANOEL PARAENSE 65                                           BARCARENA                PA684450000000000001914330000000847380602000000000J1061074175000138MAPFRE SEGUROS GERAIS S.A.                    5015                                                               0000021
1E0001272026051520260715C3     F200002783252180502                                                       ANGELA SILVESTRE DE JESUS                                             19790410                                                                                                                                            AV PEDRO PAULO DE FOGGI, 440                                     FERNANDO PRESTES         SP159400000000000010856030000000701990465000000000J1061074175000138MAPFRE SEGUROS GERAIS S.A.                    5015                                                               0000022
1E0001272026031220260912C3     F200002368221352002                                                       DEA FERREIRA TEIXEIRA MIRANDA                                         19611030                                                                                                                                            RUA JOSE FLORIANO LAGO, 83                                       CATU                     BA481100000000000001977200000000847190167000000000J1061074175000138MAPFRE SEGUROS GERAIS S.A.                    5015                                                               0000023
1E0001272026051220260712C3     F200000152911855702                                                       BRUNO ROCHA DA SILVA                                                  19840331                                                                                                                                            RUA SÉRGIO DE CARVALHO 801                                       SALVADOR                 BA402306800000000005167750000000847990212000000000J1061074175000138MAPFRE SEGUROS GERAIS S.A.                    5015                                                               0000024
1E0001272026021420271114C3     F200004879982350002                                                       CESAR SANTANA DE OLIVEIRA                                             19690813                                                                                                                                            RUA ROSA PARKS,                                                  SALVADOR                 BA413420250000000003118940000000847610674000000000J1061074175000138MAPFRE SEGUROS GERAIS S.A.                    5015                                                               0000025
1E0001272026021220271112C3     F200004879982350002                                                       CESAR SANTANA DE OLIVEIRA                                             19690813                                                                                                                                            RUA ROSA PARKS,                                                  SALVADOR                 BA413420250000000003120880000000847610079000000000J1061074175000138MAPFRE SEGUROS GERAIS S.A.                    5015                                                               0000026
9                                                                                                                                                                                                                                                                                                                                                                                                                                                                                                                                                                                                                0000027
