H49937055000111GMAC ADMINISTRADORA DE CONS”RCIOS LTDA            20251110004952
101900400940043771096855   MARCELO AUGUSTO SOUZA VAZ CARVALHO      Cobranca       0009316400000085450000085450000103660000000270001800000000300000660842025122600008757141000072373070000000-1160000007502581% ONIX 1.0RUA CURITIBA, 1040                      ALTO DA ESTACAO          AO LADO 3117890000JUNQUEIROPOLIS                SP000               018983234303      marcelomaccarvalho@hotmail.com                    IRMANDADE DA SANTA CASA DE MISR PORTO ALEGRE, 1221                    CENTRO                             17890000JUNQUEIROPOLIS                SP01838419420                                                   000                   19941007NIVALDO BASSOLI CARVALHO                ZILMA DE SOUZA VAZ CARVALHO             Consultor e Outros Analistas nao classif20201014        2020071620200821L20200825000410099000298JAVEP VEICULOS PECAS E SERVICOS LTDA    00000100000049520008839752
2019004009400        001020251020000033000000000007502500000000002021000000000007704600000000190049400064202511100820640008545000153800002560000027
30190040094009BGKS48V0KG120120    BCI5A29   01160797398  ONIX           2018/2019VERMELHA        01 - CHEVROLET      20200928                                                                                                                                                                                                                                                        000000000000
4019004009400PESSOAL              ZILMA                                   .                                                                000983234303                   
6019004009400        001020251121000033000000000007502500000000000000000000000007502500000000190049400065202511100830650008545000025600015380000027
6019004009400        001020251222000033000000000007514100000000000000000000000007514100000000190049400066202511100840660008558000027200015250000027
101900502060078635349849   NILTON ALVES PEREIRA                    Cobranca       00098218300000974400000807500000977100000000000018000000003000004708420260520000087571410000723730700000000-290000007071581% ONIX 1.0RUA GENERAL GLICERIO 1905               VL MACENO                AP. 71    15060000SAO JOSE DO RIO PRETO         SP000               017997712157      senyl@terra.com.br                                NILTON ALVES PEREIRA REPRESENT                                                                                                                   000                                                           000                   19540802MARIO ALVES PEREIRA                     APARECIDA LINO PEREIRA                  Outros trabalhadores de servicos diverso20220307        20211217        L20220222000552099000298JAVEP VEICULOS PECAS E SERVICOS LTDA    00000100000049522000051907
2019005020600        001020251015000033000000000008532700000000002447000000000008777400000000190050600046202511100770460009744000175400002920000000
501900502060006502554881   NANCI QUEIROZ DE ASSIS PEREIRA                                                                                                                             000000000000000000000000000000000000senyl@terra.com.br                                                                                                                                                                       000000000000000000                                            000000000000000000                                                                                                             0000000000000000000000                                                                                                         0000000000000000000000                                                                                                         0000000000000000000000                                                                                                         0000000000000000000000
6019005020600        001020251117000033000000000007071500000000000000000000000007071500000000190050600047202511100780470008075000024200014540000000
101900700070034257277000116JESSICA RODRIGUES DE PAULA 10151431647  Cobranca       00078382700001003500001003500001214200000000000018000000003000007108420270824000084691530000699930000000-298880000008498670% ONIX 1.0AVENIDA GETULIO VARGAS 2475             RECREIO SAO JUDAS TADEU  APTO. 163 13571271SAO CARLOS                    SP000               016997656951      contatojessicardp1@gmail.com                                                    AVENIDA GETULIO VARGAS 2475             RECREIO SAO JUDAS TADEU  APTO. 163 13571271SAO CARLOS                    SP000                                                           000                   20190718                                                                                                                        20220617        20210906        L20220426000300000000298JAVEP VEICULOS PECAS E SERVICOS LTDA    00000100000049522000011049
2019007000700        001020251017000033000000000008498600000000002380000000000008736600000000190070700050202511100620500010035000180600003010000000
30190070007009BGKT69L0FG109753    FRS5A37   01005882603  PRISMA         2014/2015PRATA           01 - CHEVROLET      00000000                                                                                                                                                                                                                                                        000000000000
501900700070010151431647   JESSICA RODRIGUES DE PAULA                                                                                                                                 000000000000000000000000000000000000contatojessicardp@outlook.com.                                                                                                                                                           000000000000000000                                            000000000000000000                                                                                                             0000000000000000000000                                                                                                         0000000000000000000000                                                                                                         0000000000000000000000                                                                                                         0000000000000000000000
6019007000700        001020251117000033000000000008498600000000000000000000000008498600000000190070700051202511100630510010035000030100018060000000
6019007000700        001020251217000033000000000008498600000000000000000000000008498600000000190070700052202511100640520010035000030100018060000000
6019007000700        001020260119000033000000000008498600000000000000000000000008498600000000190070700053202511100650530010035000030100018060000000
6019007000700        001020260217000033000000000008498600000000000000000000000008498600000000190070700054202511100660540010035000030100018060000000
6019007000700        001020260317000033000000000008524500000000000000000000000008524500000000190070700055202511100670550010052000031000018170000000
6019007000700        001020260417000033000000000008498600000000000000000000000008498600000000190070700056202511100680560010035000030100018060000000
6019007000700        001020260518000033000000000008498600000000000000000000000008498600000000190070700057202511100690570010035000030100018060000000
6019007000700        001020260617000033000000000008542000000000000000000000000008542000000000190070700058202511100700580010086000030300018150000000
6019007000700        001020260717000033000000000008498600000000000000000000000008498600000000190070700059202511100710590010035000030100018060000000
6019007000700        001020260817000033000000000008542000000000000000000000000008542000000000190070700060202511100720600010086000030300018150000000
6019007000700        001020260917000033000000000008498600000000000000000000000008498600000000190070700061202511100730610010035000030100018060000000
6019007000700        001020261019000033000000000008498600000000000000000000000008498600000000190070700062202511100740620010035000030100018060000000
6019007000700        001020261117000033000000000008498600000000000000000000000008498600000000190070700063202511100750630010035000030100018060000000
6019007000700        001020261217000033000000000008498600000000000000000000000008498600000000190070700064202511100760640010035000030100018060000000
6019007000700        001020270118000033000000000008542000000000000000000000000008542000000000190070700065202511100770650010086000030300018150000000
6019007000700        001020270217000033000000000008498600000000000000000000000008498600000000190070700066202511100780660010035000030100018060000000
6019007000700        001020270317000033000000000008498600000000000000000000000008498600000000190070700067202511100790670010035000030100018060000000
6019007000700        001020270419000033000000000008498600000000000000000000000008498600000000190070700068202511100800680010035000030100018060000000
6019007000700        001020270517000033000000000008498600000000000000000000000008498600000000190070700069202511100810690010035000030100018060000000
6019007000700        001020270617000033000000000008498600000000000000000000000008498600000000190070700070202511100820700010035000030100018060000000
6019007000700        001020270719000033000000000007448000000000000000000000000007448000000000190070700071202511100830710008794000026400015830000000
101900700970039158660836   PRISCILA BOAVENTURA MIRANDA             Cobranca       0007384930000113860000113860000140550000002780001800000000300000650842027082400007622252000062993820000000-4090000008854063% ONIX 1.0RUA LUIZ BARBOSA DE CAMPOS 90           JARDIM ALVORADA          AP 23     13562330SAO CARLOS                    SP000               011988157000      priboaventura@icloud.com                          AUTONOMO                                                                                                                                         000                                                           000                   19900718CLEZIO APARECIDO BOAVENTURA             MARILENE JANGELLI BOAVENTURA            Outros trabalhadores de servicos diverso20220722        20220418        L20220622000300000000298JAVEP VEICULOS PECAS E SERVICOS LTDA    00000100000049522000107624
2019007009700        001020251017000033000000000008854000000000002430000000000009097000000000190079700043202511100620430011386000204900003420000278
30190070097009BWBH6BF1N4059764    GDW7E97   01315805100  T CROSS        2022/2022PRATA           09 - VOLKSWAGEN     00000000                                                                                                                                                                                                                                                        000000000000
6019007009700        001020251117000033000000000008854000000000000000000000000008854000000000190079700044202511100630440011386000034200020490000278
6019007009700        001020251217000033000000000008854000000000000000000000000008854000000000190079700045202511100640450011386000034200020490000278
6019007009700        001020260119000033000000000008854000000000000000000000000008854000000000190079700046202511100650460011386000034200020490000278
6019007009700        001020260217000033000000000008854000000000000000000000000008854000000000190079700047202511100660470011386000034200020490000278
6019007009700        001020260317000033000000000008854000000000000000000000000008854000000000190079700048202511100670480011386000034200020490000278
6019007009700        001020260417000033000000000008854000000000000000000000000008854000000000190079700049202511100680490011386000034200020490000278
6019007009700        001020260518000033000000000008854000000000000000000000000008854000000000190079700050202511100690500011386000034200020490000278
6019007009700        001020260617000033000000000008854000000000000000000000000008854000000000190079700051202511100700510011386000034200020490000278
6019007009700        001020260717000033000000000008854000000000000000000000000008854000000000190079700052202511100710520011386000034200020490000278
6019007009700        001020260817000033000000000008854000000000000000000000000008854000000000190079700053202511100720530011386000034200020490000278
6019007009700        001020260917000033000000000008854000000000000000000000000008854000000000190079700054202511100730540011386000034200020490000278
6019007009700        001020261019000033000000000008854000000000000000000000000008854000000000190079700055202511100740550011386000034200020490000278
6019007009700        001020261117000033000000000008854000000000000000000000000008854000000000190079700056202511100750560011386000034200020490000278
6019007009700        001020261217000033000000000008854000000000000000000000000008854000000000190079700057202511100760570011386000034200020490000278
6019007009700        001020270118000033000000000008854000000000000000000000000008854000000000190079700058202511100770580011386000034200020490000278
6019007009700        001020270217000033000000000008854000000000000000000000000008854000000000190079700059202511100780590011386000034200020490000278
6019007009700        001020270317000033000000000008854000000000000000000000000008854000000000190079700060202511100790600011386000034200020490000278
6019007009700        001020270419000033000000000008854000000000000000000000000008854000000000190079700061202511100800610011386000034200020490000278
6019007009700        001020270517000033000000000008854000000000000000000000000008854000000000190079700062202511100810620011386000034200020490000278
6019007009700        001020270617000033000000000008854000000000000000000000000008854000000000190079700063202511100820630011386000034200020490000278
6019007009700        001020270719000033000000000008854000000000000000000000000008854000000000190079700064202511100830640011386000034200020490000278
6019007009700        001020270817000033000000000008614100000000000000000000000008614100000000190079700065202511100840650011068000030600020220000278
101900801080026793516817   ANTONIO COSMO SERRA DOS SANTOS          Cobranca       000886370000009747000003249000003938000000104000150000000030000084084202802220001132674800009598939000000-10270000003780596% ONIX 1.0AVENIDA  DOMICIANO PERINI NETO 60       CIDADE SATELITE IRIS               13059591CAMPINAS                      SP000               019981870312      valdenir.serra01@gmail.com                        DENN IND E COM DE PECAS AUTOMO                                                                                                                   000                                                           000                   19771122NAO DECLARADO                           DALVINA SERRA DOS SANTOS                Consultor e Outros Analistas nao classif202307242025071420201127        L20230623000500000000298JAVEP VEICULOS PECAS E SERVICOS LTDA    00000100000049520008911681
2019008010800        001020250815000033000000000003780500000000001803000000000003960800000000190080800054202511100540540003249000048800000970000104
2019008010800        001020250915000033000000000003780500000000001423000000000003922800000000190080800055202511100550550003249000048800000970000104
2019008010800        001020251015000033000000000003780500000000001055000000000003886000000000190080800056202511100560560003249000048800000970000104
30190080108009BD281A31MYV29608    EMC2E37   01243039911  STRADA         2020/2021PRATA           02 - FIAT           00000000                                                                                                                                                                                                                                                        000000000000
6019008010800        001020251117000033000000000003780500000000000000000000000003780500000000190080800057202511100570570003249000009700004880000104
6019008010800        001020251215000033000000000003780500000000000000000000000003780500000000190080800058202511100580580003249000009700004880000104
6019008010800        001020260115000033000000000003780500000000000000000000000003780500000000190080800059202511100590590003249000009700004880000104
6019008010800        001020260216000033000000000003780500000000000000000000000003780500000000190080800060202511100600600003249000009700004880000104
6019008010800        001020260316000033000000000003780500000000000000000000000003780500000000190080800061202511100610610003249000009700004880000104
6019008010800        001020260415000033000000000003780500000000000000000000000003780500000000190080800062202511100620620003249000009700004880000104
6019008010800        001020260515000033000000000003780500000000000000000000000003780500000000190080800063202511100630630003249000009700004880000104
6019008010800        001020260615000033000000000003780500000000000000000000000003780500000000190080800064202511100640640003249000009700004880000104
6019008010800        001020260715000033000000000003780500000000000000000000000003780500000000190080800065202511100650650003249000009700004880000104
6019008010800        001020260817000033000000000003780500000000000000000000000003780500000000190080800066202511100660660003249000009700004880000104
6019008010800        001020260915000033000000000003780500000000000000000000000003780500000000190080800067202511100670670003249000009700004880000104
6019008010800        001020261015000033000000000003780500000000000000000000000003780500000000190080800068202511100680680003249000009700004880000104
6019008010800        001020261116000033000000000003780500000000000000000000000003780500000000190080800069202511100690690003249000009700004880000104
6019008010800        001020261215000033000000000003780500000000000000000000000003780500000000190080800070202511100700700003249000009700004880000104
6019008010800        001020270115000033000000000003780500000000000000000000000003780500000000190080800071202511100710710003249000009700004880000104
6019008010800        001020270215000033000000000003780500000000000000000000000003780500000000190080800072202511100720720003249000009700004880000104
6019008010800        001020270315000033000000000003780500000000000000000000000003780500000000190080800073202511100730730003249000009700004880000104
6019008010800        001020270415000033000000000003782400000000000000000000000003782400000000190080800074202511100740740003249000009900004880000104
6019008010800        001020270517000033000000000003782400000000000000000000000003782400000000190080800075202511100750750003249000009900004880000104
6019008010800        001020270615000033000000000003782400000000000000000000000003782400000000190080800076202511100760760003249000009900004880000104
6019008010800        001020270715000033000000000003782400000000000000000000000003782400000000190080800077202511100770770003249000009900004880000104
6019008010800        001020270816000033000000000003782400000000000000000000000003782400000000190080800078202511100780780003249000009900004880000104
6019008010800        001020270915000033000000000003782400000000000000000000000003782400000000190080800079202511100790790003249000009900004880000104
6019008010800        001020271015000033000000000003782400000000000000000000000003782400000000190080800080202511100800800003249000009900004880000104
6019008010800        001020271116000033000000000003782400000000000000000000000003782400000000190080800081202511100810810003249000009900004880000104
6019008010800        001020271215000033000000000003782400000000000000000000000003782400000000190080800082202511100820820003249000009900004880000104
6019008010800        001020280117000033000000000003782400000000000000000000000003782400000000190080800083202511100830830003249000009900004880000104
6019008010800        001020280215000033000000000003757400000000000000000000000003757400000000190080800084202511100840840003256000010400004500000104
101900901520047589080000126RITA INES PIRAGINI CASSARO LTDA         Cobranca       000584018000013059000013059000015474000000422000210000000030000046084202805260000781123400006299382000000000000000009747763% ONIX 1.0RUA AMARAL GURGEL 735                   CENTRO                             17201010JAU                           SP000               014997144051      cometaembalagens@hotmail.com                                                    RUA AMARAL GURGEL 735                   CENTRO                             17201010JAU                           SP014997144051                                                  000                   19770517                                                                                                                        20240911        20240814        L20240829000535725000298JAVEP VEICULOS PECAS E SERVICOS LTDA    00000100000049522000542605
2019009015200        001020251020000033000000000009747700000000002560000000000010003700000000190095200015202511100530150013059000162900003640000422
501900901520010176889825   RITA INES PIRAGINI CASSARO                                                                                                                                 000000000000000000014000000997144051cometaembalagens@hotmail.com                                                                                                                                                             000000000000000000                                            000000000000000000                                                                                                             0000000000000000000000                                                                                                         0000000000000000000000                                                                                                         0000000000000000000000                                                                                                         0000000000000000000000
6019009015200        001020251121000033000000000009747700000000000000000000000009747700000000190095200016202511100540160013059000036400016290000422
6019009015200        001020251222000033000000000009747700000000000000000000000009747700000000190095200017202511100550170013059000036400016290000422
6019009015200        001020260120000033000000000009747700000000000000000000000009747700000000190095200018202511100560180013059000036400016290000422
6019009015200        001020260220000033000000000009747700000000000000000000000009747700000000190095200019202511100570190013059000036400016290000422
6019009015200        001020260320000033000000000009747700000000000000000000000009747700000000190095200020202511100580200013059000036400016290000422
6019009015200        001020260420000033000000000009747700000000000000000000000009747700000000190095200021202511100590210013059000036400016290000422
6019009015200        001020260520000033000000000009747700000000000000000000000009747700000000190095200022202511100600220013059000036400016290000422
6019009015200        001020260622000033000000000009747700000000000000000000000009747700000000190095200023202511100610230013059000036400016290000422
6019009015200        001020260720000033000000000009747700000000000000000000000009747700000000190095200024202511100620240013059000036400016290000422
6019009015200        001020260820000033000000000009747700000000000000000000000009747700000000190095200025202511100630250013059000036400016290000422
6019009015200        001020260921000033000000000009747700000000000000000000000009747700000000190095200026202511100640260013059000036400016290000422
6019009015200        001020261020000033000000000009747700000000000000000000000009747700000000190095200027202511100650270013059000036400016290000422
6019009015200        001020261123000033000000000009747700000000000000000000000009747700000000190095200028202511100660280013059000036400016290000422
6019009015200        001020261221000033000000000009747700000000000000000000000009747700000000190095200029202511100670290013059000036400016290000422
6019009015200        001020270120000033000000000009747700000000000000000000000009747700000000190095200030202511100680300013059000036400016290000422
6019009015200        001020270222000033000000000009747700000000000000000000000009747700000000190095200031202511100690310013059000036400016290000422
6019009015200        001020270322000033000000000009747700000000000000000000000009747700000000190095200032202511100700320013059000036400016290000422
6019009015200        001020270420000033000000000009747700000000000000000000000009747700000000190095200033202511100710330013059000036400016290000422
6019009015200        001020270520000033000000000009747700000000000000000000000009747700000000190095200034202511100720340013059000036400016290000422
6019009015200        001020270621000033000000000009747700000000000000000000000009747700000000190095200035202511100730350013059000036400016290000422
6019009015200        001020270720000033000000000009747700000000000000000000000009747700000000190095200036202511100740360013059000036400016290000422
6019009015200        001020270820000033000000000009747700000000000000000000000009747700000000190095200037202511100750370013059000036400016290000422
6019009015200        001020270920000033000000000009747700000000000000000000000009747700000000190095200038202511100760380013059000036400016290000422
6019009015200        001020271020000033000000000009747700000000000000000000000009747700000000190095200039202511100770390013059000036400016290000422
6019009015200        001020271122000033000000000009747700000000000000000000000009747700000000190095200040202511100780400013059000036400016290000422
6019009015200        001020271220000033000000000009747700000000000000000000000009747700000000190095200041202511100790410013059000036400016290000422
6019009015200        001020280120000033000000000009747700000000000000000000000009747700000000190095200042202511100800420013059000036400016290000422
6019009015200        001020280221000033000000000009747700000000000000000000000009747700000000190095200043202511100810430013059000036400016290000422
6019009015200        001020280320000033000000000009747700000000000000000000000009747700000000190095200044202511100820440013059000036400016290000422
6019009015200        001020280420000033000000000009747700000000000000000000000009747700000000190095200045202511100830450013059000036400016290000422
6019009015200        001020280522000033000000000008358000000000000000000000000008358000000000190095200046202511100840460011153000031700013760000422
101900903340047762219854   AMANDA GONCALVES IZIDORO                Cobranca       0007776450000069490000069490000086440000002370001800000000300000790842028052600010028964000082884000000000-3230000007164293% ONIX 1.0RUA EUGENIO FRANCO DE CAMARGO 1908      JARDIM BRASIL CENTRO     CA 2      13569270SAO CARLOS                    SP000               011991061487      izidora.amanda@hotmail.com                        AMANDA GONCALVES IZODORO ME                                                                                                                      000                                                           000                   19990127JOSIEL IZIDORO                          ADRIANA GIL GONCALVES IZIDORO           Outros trabalhadores de servicos diverso20220125        20211110        L20211224000530000000298JAVEP VEICULOS PECAS E SERVICOS LTDA    00000100000049522000036131
2019009033400        001020251020000033000000000007165000000000001882000000000007353200000000190093400048202511100530480006949000125000002090000237
30190090334003GNCJ8CW9FL233094    GAO3D26   01072330846  CHEV TRACKER LT2015/2015CINZA           01 - CHEVROLET      00000000                                                                                                                                                                                                                                                        000000000000
6019009033400        001020251121000033000000000007164200000000000000000000000007164200000000190093400049202511100540490006949000020800012500000237
6019009033400        001020251222000033000000000007165000000000000000000000000007165000000000190093400050202511100550500006949000020900012500000237
6019009033400        001020260120000033000000000007164200000000000000000000000007164200000000190093400051202511100560510006949000020800012500000237
6019009033400        001020260220000033000000000007165000000000000000000000000007165000000000190093400052202511100570520006949000020900012500000237
6019009033400        001020260320000033000000000007164200000000000000000000000007164200000000190093400053202511100580530006949000020800012500000237
6019009033400        001020260420000033000000000007168400000000000000000000000007168400000000190093400054202511100590540006949000020900012540000237
6019009033400        001020260520000033000000000007164200000000000000000000000007164200000000190093400055202511100600550006949000020800012500000237
6019009033400        001020260622000033000000000007165000000000000000000000000007165000000000190093400056202511100610560006949000020900012500000237
6019009033400        001020260720000033000000000007165000000000000000000000000007165000000000190093400057202511100620570006949000020900012500000237
6019009033400        001020260820000033000000000007168400000000000000000000000007168400000000190093400058202511100630580006949000020900012540000237
6019009033400        001020260921000033000000000007164200000000000000000000000007164200000000190093400059202511100640590006949000020800012500000237
6019009033400        001020261020000033000000000007177500000000000000000000000007177500000000190093400060202511100650600006960000020900012540000237
6019009033400        001020261123000033000000000007164200000000000000000000000007164200000000190093400061202511100660610006949000020800012500000237
6019009033400        001020261221000033000000000007164200000000000000000000000007164200000000190093400062202511100670620006949000020800012500000237
6019009033400        001020270120000033000000000007165000000000000000000000000007165000000000190093400063202511100680630006949000020900012500000237
6019009033400        001020270222000033000000000007165000000000000000000000000007165000000000190093400064202511100690640006949000020900012500000237
6019009033400        001020270322000033000000000007164200000000000000000000000007164200000000190093400065202511100700650006949000020800012500000237
6019009033400        001020270420000033000000000007165000000000000000000000000007165000000000190093400066202511100710660006949000020900012500000237
6019009033400        001020270520000033000000000007164200000000000000000000000007164200000000190093400067202511100720670006949000020800012500000237
6019009033400        001020270621000033000000000007165000000000000000000000000007165000000000190093400068202511100730680006949000020900012500000237
6019009033400        001020270720000033000000000007164200000000000000000000000007164200000000190093400069202511100740690006949000020800012500000237
6019009033400        001020270820000033000000000007164200000000000000000000000007164200000000190093400070202511100750700006949000020800012500000237
6019009033400        001020270920000033000000000007164200000000000000000000000007164200000000190093400071202511100760710006949000020800012500000237
6019009033400        001020271020000033000000000007164200000000000000000000000007164200000000190093400072202511100770720006949000020800012500000237
6019009033400        001020271122000033000000000007165000000000000000000000000007165000000000190093400073202511100780730006949000020900012500000237
6019009033400        001020271220000033000000000007164200000000000000000000000007164200000000190093400074202511100790740006949000020800012500000237
6019009033400        001020280120000033000000000007164200000000000000000000000007164200000000190093400075202511100800750006949000020800012500000237
6019009033400        001020280221000033000000000007168400000000000000000000000007168400000000190093400076202511100810760006949000020900012540000237
6019009033400        001020280320000033000000000007165000000000000000000000000007165000000000190093400077202511100820770006949000020900012500000237
6019009033400        001020280420000033000000000007164200000000000000000000000007164200000000190093400078202511100830780006949000020800012500000237
6019009033400        001020280522000033000000000007180900000000000000000000000007180900000000190093400079202511100840790006959000019700012710000237
101901100180091058988204   JESIEL BARBOSA ARAUJO                   Cobranca       000748475000005718000005718000007018000000238000240000000030000084084202901260000838103400006599239000000-20260000004631566% ONIX 1.0RUA DOUTOR GALDOS ANGULO 600            JARDIM JOSE WILSON TONI  TP TORRE 514056071RIBEIRAO PRETO                SP000               016981335221      jheison86@gmail.com                               JESIEL BARBOSA ARAUJO 91058988                                                                                                                   000                                                           000                   19860704ANTONIO FRANCISCO DE ARAUJO             MARIA JOSE BARBOSA ARAUJO               Outros trabalhadores de servicos diverso20230118        20220113        L20221229000601500000298JAVEP VEICULOS PECAS E SERVICOS LTDA    00000100000049522000062603
2019011001800        001020251020000033000000000004631500000000001208000000000004752300000000190111800045202511100450450005718000090600001560000238
301901100180093YHSR7P5FJ534709    FUF0I69   01029110171  DUSTER         2014/2015BRANCA          08 - RENAULT        00000000                                                                                                                                                                                                                                                        000000000000
6019011001800        001020251121000033000000000004631500000000000000000000000004631500000000190111800046202511100460460005718000015600009060000238
6019011001800        001020251222000033000000000004631500000000000000000000000004631500000000190111800047202511100470470005718000015600009060000238
6019011001800        001020260120000033000000000004631500000000000000000000000004631500000000190111800048202511100480480005718000015600009060000238
6019011001800        001020260220000033000000000004631500000000000000000000000004631500000000190111800049202511100490490005718000015600009060000238
6019011001800        001020260320000033000000000004631500000000000000000000000004631500000000190111800050202511100500500005718000015600009060000238
6019011001800        001020260420000033000000000004631500000000000000000000000004631500000000190111800051202511100510510005718000015600009060000238
6019011001800        001020260520000033000000000004631500000000000000000000000004631500000000190111800052202511100520520005718000015600009060000238
6019011001800        001020260622000033000000000004631500000000000000000000000004631500000000190111800053202511100530530005718000015600009060000238
6019011001800        001020260720000033000000000004631500000000000000000000000004631500000000190111800054202511100540540005718000015600009060000238
6019011001800        001020260820000033000000000004631500000000000000000000000004631500000000190111800055202511100550550005718000015600009060000238
6019011001800        001020260921000033000000000004631500000000000000000000000004631500000000190111800056202511100560560005718000015600009060000238
6019011001800        001020261020000033000000000004631500000000000000000000000004631500000000190111800057202511100570570005718000015600009060000238
6019011001800        001020261123000033000000000004631500000000000000000000000004631500000000190111800058202511100580580005718000015600009060000238
6019011001800        001020261221000033000000000004631500000000000000000000000004631500000000190111800059202511100590590005718000015600009060000238
6019011001800        001020270120000033000000000004631500000000000000000000000004631500000000190111800060202511100600600005718000015600009060000238
6019011001800        001020270222000033000000000004631500000000000000000000000004631500000000190111800061202511100610610005718000015600009060000238
6019011001800        001020270322000033000000000004631500000000000000000000000004631500000000190111800062202511100620620005718000015600009060000238
6019011001800        001020270420000033000000000004631500000000000000000000000004631500000000190111800063202511100630630005718000015600009060000238
6019011001800        001020270520000033000000000004631500000000000000000000000004631500000000190111800064202511100640640005718000015600009060000238
6019011001800        001020270621000033000000000004631500000000000000000000000004631500000000190111800065202511100650650005718000015600009060000238
6019011001800        001020270720000033000000000004631500000000000000000000000004631500000000190111800066202511100660660005718000015600009060000238
6019011001800        001020270820000033000000000004631500000000000000000000000004631500000000190111800067202511100670670005718000015600009060000238
6019011001800        001020270920000033000000000004631500000000000000000000000004631500000000190111800068202511100680680005718000015600009060000238
6019011001800        001020271020000033000000000004631500000000000000000000000004631500000000190111800069202511100690690005718000015600009060000238
6019011001800        001020271122000033000000000004631500000000000000000000000004631500000000190111800070202511100700700005718000015600009060000238
6019011001800        001020271220000033000000000004631500000000000000000000000004631500000000190111800071202511100710710005718000015600009060000238
6019011001800        001020280120000033000000000004631500000000000000000000000004631500000000190111800072202511100720720005718000015600009060000238
6019011001800        001020280221000033000000000004631500000000000000000000000004631500000000190111800073202511100730730005718000015600009060000238
6019011001800        001020280320000033000000000004631500000000000000000000000004631500000000190111800074202511100740740005718000015600009060000238
6019011001800        001020280420000033000000000004631500000000000000000000000004631500000000190111800075202511100750750005718000015600009060000238
6019011001800        001020280522000033000000000004631500000000000000000000000004631500000000190111800076202511100760760005718000015600009060000238
6019011001800        001020280620000033000000000004631500000000000000000000000004631500000000190111800077202511100770770005718000015600009060000238
6019011001800        001020280720000033000000000004631500000000000000000000000004631500000000190111800078202511100780780005718000015600009060000238
6019011001800        001020280821000033000000000004632200000000000000000000000004632200000000190111800079202511100790790005718000015700009060000238
6019011001800        001020280920000033000000000004630900000000000000000000000004630900000000190111800080202511100800800005718000015500009060000238
6019011001800        001020281020000033000000000004630900000000000000000000000004630900000000190111800081202511100810810005718000015500009060000238
6019011001800        001020281121000033000000000004630900000000000000000000000004630900000000190111800082202511100820820005718000015500009060000238
6019011001800        001020281220000033000000000004630900000000000000000000000004630900000000190111800083202511100830830005718000015500009060000238
6019011001800        001020290122000033000000000004609200000000000000000000000004609200000000190111800084202511100840840005687000016700008920000238
101901101800014596607818   EVANDRO ESTEVAO CAPASSI                 Cobranca       0008465050000406410000135470000152120000000000001500000000300000470842029012600011798820000099990000000000-14000000152105ONIX 1.0    RUA TITO COLO 30                        JARDIM CHACARA FLORA               17204565JAU                           SP000               014991025097      evandro.manao@hotmail.com                         BELLARI INDUSTRIA E COMERCIO L                                                                                                                   000                                                           000                   19720731AURELIO CAPASSI                         SIRLEI TESTA CAPASSI                    Outros trabalhadores de servicos diverso20240916        20220830        L20240829000470000000298JAVEP VEICULOS PECAS E SERVICOS LTDA    00000100000049522000168465
2019011018000        001020250820000033000000000015210500000000007200000000000015930500000000190118000036202511100430360013547000127900003860000000
2019011018000        001020250922000033000000000015210500000000005526000000000015763100000000190118000037202511100440370013547000127900003860000000
2019011018000        001020251020000033000000000015210500000000004107000000000015621200000000190118000038202511100450380013547000127900003860000000
30190110180009886111LRNK467872    GJK6A55   01292467522  RENEGADE       2022/2022CINZA           JEEP                00000000                                                                                                                                                                                                                                                        000000000000
6019011018000        001020251121000033000000000015210500000000000000000000000015210500000000190118000039202511100460390013547000038600012790000000
6019011018000        001020251222000033000000000015210500000000000000000000000015210500000000190118000040202511100470400013547000038600012790000000
6019011018000        001020260120000033000000000015210500000000000000000000000015210500000000190118000041202511100480410013547000038600012790000000
6019011018000        001020260220000033000000000015210500000000000000000000000015210500000000190118000042202511100490420013547000038600012790000000
6019011018000        001020260320000033000000000015210500000000000000000000000015210500000000190118000043202511100500430013547000038600012790000000
6019011018000        001020260420000033000000000015210500000000000000000000000015210500000000190118000044202511100510440013547000038600012790000000
6019011018000        001020260520000033000000000015210500000000000000000000000015210500000000190118000045202511100520450013547000038600012790000000
6019011018000        001020260622000033000000000015210500000000000000000000000015210500000000190118000046202511100530460013547000038600012790000000
6019011018000        001020260720000033000000000005037600000000000000000000000005037600000000190118000047202511100540470004493000013100004140000000
101901102050088885828868   AVELINO MARANGONI                       Cobranca       00071536300000675200000675200000808400000026100021000000003000008208420290126000069431800000559933900000000-220000004526756% ONIX 1.0RUA PASTOR CYRUS BASSET DAWSEY 40       COND N DE NAZARE         CA 53     13569530SAO CARLOS                    SP000               011997225023      avelinomarangoni@gmail.com                        AUTONOMO                                                                                                                                         000                                                           000                   19550206JOAO AVELINO MARANGONI                  NATALINA CRIALESI MARANGONI             Outros trabalhadores de servicos diverso20221024        20220207        L20220930000531000000298JAVEP VEICULOS PECAS E SERVICOS LTDA    00000100000049522000073649
2019011020500        001020251020000033000000000004526700000000001183000000000004645000000000190110500045202511100450450006752000088100001900000261
30190110205009BGKS48U0JG386629    GAC9E51   01153616014  ONIX           2018/2018PRATA           01 - CHEVROLET      00000000                                                                                                                                                                                                                                                        000000000000
6019011020500        001020251121000033000000000004526700000000000000000000000004526700000000190110500046202511100460460006752000019000008810000261
6019011020500        001020251222000033000000000004526700000000000000000000000004526700000000190110500047202511100470470006752000019000008810000261
6019011020500        001020260120000033000000000004526700000000000000000000000004526700000000190110500048202511100480480006752000019000008810000261
6019011020500        001020260220000033000000000004526700000000000000000000000004526700000000190110500049202511100490490006752000019000008810000261
6019011020500        001020260320000033000000000004526700000000000000000000000004526700000000190110500050202511100500500006752000019000008810000261
6019011020500        001020260420000033000000000004526700000000000000000000000004526700000000190110500051202511100510510006752000019000008810000261
6019011020500        001020260520000033000000000004526700000000000000000000000004526700000000190110500052202511100520520006752000019000008810000261
6019011020500        001020260622000033000000000004526700000000000000000000000004526700000000190110500053202511100530530006752000019000008810000261
6019011020500        001020260720000033000000000004526700000000000000000000000004526700000000190110500054202511100540540006752000019000008810000261
6019011020500        001020260820000033000000000004526700000000000000000000000004526700000000190110500055202511100550550006752000019000008810000261
6019011020500        001020260921000033000000000004526700000000000000000000000004526700000000190110500056202511100560560006752000019000008810000261
6019011020500        001020261020000033000000000004526700000000000000000000000004526700000000190110500057202511100570570006752000019000008810000261
6019011020500        001020261123000033000000000004526700000000000000000000000004526700000000190110500058202511100580580006752000019000008810000261
6019011020500        001020261221000033000000000004526700000000000000000000000004526700000000190110500059202511100590590006752000019000008810000261
6019011020500        001020270120000033000000000004526700000000000000000000000004526700000000190110500060202511100600600006752000019000008810000261
6019011020500        001020270222000033000000000004526700000000000000000000000004526700000000190110500061202511100610610006752000019000008810000261
6019011020500        001020270322000033000000000004526700000000000000000000000004526700000000190110500062202511100620620006752000019000008810000261
6019011020500        001020270420000033000000000004526700000000000000000000000004526700000000190110500063202511100630630006752000019000008810000261
6019011020500        001020270520000033000000000004526700000000000000000000000004526700000000190110500064202511100640640006752000019000008810000261
6019011020500        001020270621000033000000000004526700000000000000000000000004526700000000190110500065202511100650650006752000019000008810000261
6019011020500        001020270720000033000000000004526700000000000000000000000004526700000000190110500066202511100660660006752000019000008810000261
6019011020500        001020270820000033000000000004526700000000000000000000000004526700000000190110500067202511100670670006752000019000008810000261
6019011020500        001020270920000033000000000004526100000000000000000000000004526100000000190110500068202511100680680006752000018900008810000261
6019011020500        001020271020000033000000000004526100000000000000000000000004526100000000190110500069202511100690690006752000018900008810000261
6019011020500        001020271122000033000000000004526100000000000000000000000004526100000000190110500070202511100700700006752000018900008810000261
6019011020500        001020271220000033000000000004526100000000000000000000000004526100000000190110500071202511100710710006752000018900008810000261
6019011020500        001020280120000033000000000004526100000000000000000000000004526100000000190110500072202511100720720006752000018900008810000261
6019011020500        001020280221000033000000000004526100000000000000000000000004526100000000190110500073202511100730730006752000018900008810000261
6019011020500        001020280320000033000000000004526100000000000000000000000004526100000000190110500074202511100740740006752000018900008810000261
6019011020500        001020280420000033000000000004526100000000000000000000000004526100000000190110500075202511100750750006752000018900008810000261
6019011020500        001020280522000033000000000004526100000000000000000000000004526100000000190110500076202511100760760006752000018900008810000261
6019011020500        001020280620000033000000000004526100000000000000000000000004526100000000190110500077202511100770770006752000018900008810000261
6019011020500        001020280720000033000000000004526100000000000000000000000004526100000000190110500078202511100780780006752000018900008810000261
6019011020500        001020280821000033000000000004526100000000000000000000000004526100000000190110500079202511100790790006752000018900008810000261
6019011020500        001020280920000033000000000004526100000000000000000000000004526100000000190110500080202511100800800006752000018900008810000261
6019011020500        001020281020000033000000000004526100000000000000000000000004526100000000190110500081202511100810810006752000018900008810000261
6019011020500        001020281121000033000000000004303200000000000000000000000004303200000000190110500082202511100820820006409000017900008360000261
101901104870005616170828   HENRIQUE DE LIMA E SOUZA                Cobranca       0003732790000305780000152890000178290000006210001800000000300000700842029012600009679032000079992000000000-3200000014261880% ONIX 1.0RUA PAULO DE GODOY BUENO 96             RESIDENCIAL ITAMARATI              13568755SAO CARLOS                    SP000               011997433389      henriquelisouza@hotmail.com                       AUTONOMO                                                                                                                                         000                                                           000                   19640602HELIO GONCALVES DE SOUZA                TEREZA GARCIA DE LIMA E SOUZA           Outros trabalhadores de servicos diverso20241119        20230418        S20241029000000000000298JAVEP VEICULOS PECAS E SERVICOS LTDA    00000100000049522000277694
2019011048700        001020250922000033000000000014261800000000005001000000000014761900000000190118700030202511100440300015289000149300004260000621
2019011048700        001020251020000033000000000014261800000000003717000000000014633500000000190118700031202511100450310015289000149300004260000621
301901104870094DFCAP15JB107382    FJR7D44   01129144752  KICKS          2017/2018CINZA           NISSAN              00000000                                                                                                                                                                                                                                                        000000000000
6019011048700        001020251121000033000000000014261800000000000000000000000014261800000000190118700032202511100460320015289000042600014930000621
6019011048700        001020251222000033000000000014261800000000000000000000000014261800000000190118700033202511100470330015289000042600014930000621
6019011048700        001020260120000033000000000014261800000000000000000000000014261800000000190118700034202511100480340015289000042600014930000621
6019011048700        001020260220000033000000000014261800000000000000000000000014261800000000190118700035202511100490350015289000042600014930000621
6019011048700        001020260320000033000000000014261800000000000000000000000014261800000000190118700036202511100500360015289000042600014930000621
6019011048700        001020260420000033000000000014261800000000000000000000000014261800000000190118700037202511100510370015289000042600014930000621
6019011048700        001020260520000033000000000014261800000000000000000000000014261800000000190118700038202511100520380015289000042600014930000621
6019011048700        001020260622000033000000000014261800000000000000000000000014261800000000190118700039202511100530390015289000042600014930000621
6019011048700        001020260720000033000000000014261800000000000000000000000014261800000000190118700040202511100540400015289000042600014930000621
6019011048700        001020260820000033000000000014261800000000000000000000000014261800000000190118700041202511100550410015289000042600014930000621
6019011048700        001020260921000033000000000014261800000000000000000000000014261800000000190118700042202511100560420015289000042600014930000621
6019011048700        001020261020000033000000000014261800000000000000000000000014261800000000190118700043202511100570430015289000042600014930000621
6019011048700        001020261123000033000000000014261800000000000000000000000014261800000000190118700044202511100580440015289000042600014930000621
6019011048700        001020261221000033000000000014261800000000000000000000000014261800000000190118700045202511100590450015289000042600014930000621
6019011048700        001020270120000033000000000014261800000000000000000000000014261800000000190118700046202511100600460015289000042600014930000621
6019011048700        001020270222000033000000000014261800000000000000000000000014261800000000190118700047202511100610470015289000042600014930000621
6019011048700        001020270322000033000000000014261800000000000000000000000014261800000000190118700048202511100620480015289000042600014930000621
6019011048700        001020270420000033000000000014261800000000000000000000000014261800000000190118700049202511100630490015289000042600014930000621
6019011048700        001020270520000033000000000014261800000000000000000000000014261800000000190118700050202511100640500015289000042600014930000621
6019011048700        001020270621000033000000000014261800000000000000000000000014261800000000190118700051202511100650510015289000042600014930000621
6019011048700        001020270720000033000000000014261800000000000000000000000014261800000000190118700052202511100660520015289000042600014930000621
6019011048700        001020270820000033000000000014261800000000000000000000000014261800000000190118700053202511100670530015289000042600014930000621
6019011048700        001020270920000033000000000014261800000000000000000000000014261800000000190118700054202511100680540015289000042600014930000621
6019011048700        001020271020000033000000000014261800000000000000000000000014261800000000190118700055202511100690550015289000042600014930000621
6019011048700        001020271122000033000000000014261800000000000000000000000014261800000000190118700056202511100700560015289000042600014930000621
6019011048700        001020271220000033000000000014261800000000000000000000000014261800000000190118700057202511100710570015289000042600014930000621
6019011048700        001020280120000033000000000014261800000000000000000000000014261800000000190118700058202511100720580015289000042600014930000621
6019011048700        001020280221000033000000000014261800000000000000000000000014261800000000190118700059202511100730590015289000042600014930000621
6019011048700        001020280320000033000000000014261800000000000000000000000014261800000000190118700060202511100740600015289000042600014930000621
6019011048700        001020280420000033000000000014261800000000000000000000000014261800000000190118700061202511100750610015289000042600014930000621
6019011048700        001020280522000033000000000014261800000000000000000000000014261800000000190118700062202511100760620015289000042600014930000621
6019011048700        001020280620000033000000000014261800000000000000000000000014261800000000190118700063202511100770630015289000042600014930000621
6019011048700        001020280720000033000000000014261800000000000000000000000014261800000000190118700064202511100780640015289000042600014930000621
6019011048700        001020280821000033000000000014261800000000000000000000000014261800000000190118700065202511100790650015289000042600014930000621
6019011048700        001020280920000033000000000014261800000000000000000000000014261800000000190118700066202511100800660015289000042600014930000621
6019011048700        001020281020000033000000000014261800000000000000000000000014261800000000190118700067202511100810670015289000042600014930000621
6019011048700        001020281121000033000000000014261800000000000000000000000014261800000000190118700068202511100820680015289000042600014930000621
6019011048700        001020281220000033000000000014261800000000000000000000000014261800000000190118700069202511100830690015289000042600014930000621
6019011048700        001020290122000033000000000014333000000000000000000000000014333000000000190118700070202511100840700015312000047200015130000621
101901201560048111001827   EVERTON BOTAMEDI DE LIMA                Cobranca       00029387900001283800001283800001641600000075800024000000003000008308420300426000069843820000549951300000000-550000009027955% ONIX 1.0RUA JOAO JORGE DA COSTA 26              CECAP                              15041010SAO JOSE DO RIO PRETO         SP000               000               evertonbotamedi@gmail.com                         EVERTON BOTAMEDI DE LIMA 48111                                                                                                                   017991778317                                                  000                   19951226DEMETRIO DE LIMA                        MARIA ANTONIA BOTAMEDI DE LIMA          AUTONOMO                                20240411        2023060920240320S20240227000000000000298JAVEP VEICULOS PECAS E SERVICOS LTDA    00000100000049522000306064
2019012015600        001020251020000033000000000009027900000000002325000000000009260400000000190125600029202511100300290012838000245900003610000758
30190120156009BGKS48U0HG161398    FWE4H88   01111288302  ONIX           2016/2017CINZA           01 - CHEVROLET      00000000                                                                                                                                                                                                                                                        000000000000
6019012015600        001020251121000033000000000009027900000000000000000000000009027900000000190125600030202511100310300012838000036100024590000758
6019012015600        001020251222000033000000000009027900000000000000000000000009027900000000190125600031202511100320310012838000036100024590000758
6019012015600        001020260120000033000000000009027900000000000000000000000009027900000000190125600032202511100330320012838000036100024590000758
6019012015600        001020260220000033000000000009027900000000000000000000000009027900000000190125600033202511100340330012838000036100024590000758
6019012015600        001020260320000033000000000009027900000000000000000000000009027900000000190125600034202511100350340012838000036100024590000758
6019012015600        001020260420000033000000000009027900000000000000000000000009027900000000190125600035202511100360350012838000036100024590000758
6019012015600        001020260520000033000000000009027900000000000000000000000009027900000000190125600036202511100370360012838000036100024590000758
6019012015600        001020260622000033000000000009027900000000000000000000000009027900000000190125600037202511100380370012838000036100024590000758
6019012015600        001020260720000033000000000009027900000000000000000000000009027900000000190125600038202511100390380012838000036100024590000758
6019012015600        001020260820000033000000000009027900000000000000000000000009027900000000190125600039202511100400390012838000036100024590000758
6019012015600        001020260921000033000000000009027900000000000000000000000009027900000000190125600040202511100410400012838000036100024590000758
6019012015600        001020261020000033000000000009027900000000000000000000000009027900000000190125600041202511100420410012838000036100024590000758
6019012015600        001020261123000033000000000009027900000000000000000000000009027900000000190125600042202511100430420012838000036100024590000758
6019012015600        001020261221000033000000000009027900000000000000000000000009027900000000190125600043202511100440430012838000036100024590000758
6019012015600        001020270120000033000000000009027900000000000000000000000009027900000000190125600044202511100450440012838000036100024590000758
6019012015600        001020270222000033000000000009027900000000000000000000000009027900000000190125600045202511100460450012838000036100024590000758
6019012015600        001020270322000033000000000009027900000000000000000000000009027900000000190125600046202511100470460012838000036100024590000758
6019012015600        001020270420000033000000000009027900000000000000000000000009027900000000190125600047202511100480470012838000036100024590000758
6019012015600        001020270520000033000000000009027900000000000000000000000009027900000000190125600048202511100490480012838000036100024590000758
6019012015600        001020270621000033000000000009027900000000000000000000000009027900000000190125600049202511100500490012838000036100024590000758
6019012015600        001020270720000033000000000009027900000000000000000000000009027900000000190125600050202511100510500012838000036100024590000758
6019012015600        001020270820000033000000000009027900000000000000000000000009027900000000190125600051202511100520510012838000036100024590000758
6019012015600        001020270920000033000000000009027900000000000000000000000009027900000000190125600052202511100530520012838000036100024590000758
6019012015600        001020271020000033000000000009027900000000000000000000000009027900000000190125600053202511100540530012838000036100024590000758
6019012015600        001020271122000033000000000009027900000000000000000000000009027900000000190125600054202511100550540012838000036100024590000758
6019012015600        001020271220000033000000000009027900000000000000000000000009027900000000190125600055202511100560550012838000036100024590000758
6019012015600        001020280120000033000000000009027900000000000000000000000009027900000000190125600056202511100570560012838000036100024590000758
6019012015600        001020280221000033000000000009027900000000000000000000000009027900000000190125600057202511100580570012838000036100024590000758
6019012015600        001020280320000033000000000009027900000000000000000000000009027900000000190125600058202511100590580012838000036100024590000758
6019012015600        001020280420000033000000000009027900000000000000000000000009027900000000190125600059202511100600590012838000036100024590000758
6019012015600        001020280522000033000000000009027900000000000000000000000009027900000000190125600060202511100610600012838000036100024590000758
6019012015600        001020280620000033000000000009027900000000000000000000000009027900000000190125600061202511100620610012838000036100024590000758
6019012015600        001020280720000033000000000009027900000000000000000000000009027900000000190125600062202511100630620012838000036100024590000758
6019012015600        001020280821000033000000000009027900000000000000000000000009027900000000190125600063202511100640630012838000036100024590000758
6019012015600        001020280920000033000000000009027900000000000000000000000009027900000000190125600064202511100650640012838000036100024590000758
6019012015600        001020281020000033000000000009027900000000000000000000000009027900000000190125600065202511100660650012838000036100024590000758
6019012015600        001020281121000033000000000009027900000000000000000000000009027900000000190125600066202511100670660012838000036100024590000758
6019012015600        001020281220000033000000000009027900000000000000000000000009027900000000190125600067202511100680670012838000036100024590000758
6019012015600        001020290122000033000000000009027900000000000000000000000009027900000000190125600068202511100690680012838000036100024590000758
6019012015600        001020290220000033000000000009027900000000000000000000000009027900000000190125600069202511100700690012838000036100024590000758
6019012015600        001020290320000033000000000009027900000000000000000000000009027900000000190125600070202511100710700012838000036100024590000758
6019012015600        001020290420000033000000000009027900000000000000000000000009027900000000190125600071202511100720710012838000036100024590000758
6019012015600        001020290521000033000000000009027900000000000000000000000009027900000000190125600072202511100730720012838000036100024590000758
6019012015600        001020290620000033000000000009027900000000000000000000000009027900000000190125600073202511100740730012838000036100024590000758
6019012015600        001020290720000033000000000009027900000000000000000000000009027900000000190125600074202511100750740012838000036100024590000758
6019012015600        001020290820000033000000000009027900000000000000000000000009027900000000190125600075202511100760750012838000036100024590000758
6019012015600        001020290920000033000000000009027900000000000000000000000009027900000000190125600076202511100770760012838000036100024590000758
6019012015600        001020291022000033000000000009027900000000000000000000000009027900000000190125600077202511100780770012838000036100024590000758
6019012015600        001020291121000033000000000009027900000000000000000000000009027900000000190125600078202511100790780012838000036100024590000758
6019012015600        001020291220000033000000000009027900000000000000000000000009027900000000190125600079202511100800790012838000036100024590000758
6019012015600        001020300121000033000000000009027900000000000000000000000009027900000000190125600080202511100810800012838000036100024590000758
6019012015600        001020300220000033000000000009027900000000000000000000000009027900000000190125600081202511100820810012838000036100024590000758
6019012015600        001020300320000033000000000009027900000000000000000000000009027900000000190125600082202511100830820012838000036100024590000758
6019012015600        001020300422000033000000000009047200000000000000000000000009047200000000190125600083202511100840830012877000039800024180000758
102025902280078582059353   KELLY VANDERSON OLIVEIRA NUNES          Cobranca       0009854610000145720000150360000177390000000150001550000000600000670802025103000015793785000129990000000000-52000000230590NOVO PRISMA Rua Paulo Gomes da Silva 221            Parque Soledade                    61603070CAUCAIA                       CE000               083987353318      vandersonkelly@hotmail.com                        PROFISSIONAL LIBERAL                                                                                                                             000                                                           000                   19770312JUCELIO CHAVES NUNES                    MARIA DEUSA OLIVEIRA NUNES              Guia de turismo                         20200723        2020021120220118S20200228000000000000246GLOBO BRASIL,CONSORCIOS E SERV LTDA ME  00000100000049520008762752
2020259022800        001020250822000033000000000022388200000000010439000000000023432100000000202592800067202511100780670014572000179700008390000015
3020259022800WV1DB42H7GA016017    PMA7H61   01076225303  AMAROK         2015/2016PRATA           09 - VOLKSWAGEN     20200715                                                                                                                                                                                                                                                        000000000000
4020259022800PESSOAL                                                                                                                       085992766149                   
102026000920042827183234   MARINALVA BRITO DAS MERCES              Cobranca       00097541000001296600001296600001521200000002500015500000006000008008020251218000157937850001299900000000000-1300000197745NOVO PRISMA R CABO LUIZ GONZAGA 14                  CAMPINA DE ICOARACI      FUNDOS    66813840BELEM                         PA000               091983688634      marinalva.brito.merces@hotmail.com                AUTONOMO                                                                                                                                         000                                                           000                   19720308ADINORAL DOS SANTOS BRITO               RAIMUNDA DUARTE SILVA                   Professor do ensino medio               20240926        20190327        S20240917000000000000049AUTO CONSORCIO REPR COM E SERVICOS LTDA 00000100000049520008590231
2020260009200        001020251103000033000000000019774500000000004409000000000020215400000000202609200079202511100790790012966000147100007500000025
30202600092009BGEP76B0SB132939    SZU8D36   01414316949  NOVO TRACKER 1.2024/2025AZUL BOREAL     01 - CHEVROLET      00000000                                                                                                                                                                                                                                                        000000000000
6020260009200        001020251202000033000000000017685500000000000000000000000017685500000000202609200080202511100800800011558000069000013320000025
102026001200071254226672   ELTON ALVES DE OLIVEIRA                 Cobranca       0009740210000129660000129660000152140000000270001550000000600000800802025121800015793785000129990000000000-24700000197763NOVO PRISMA RUA  PALERMO 280                        JARDIM EUROPA                      38414539UBERLANDIA                    MG000               034999610336      eltonalves5533@gmail.com                          DaVita Servicos Medicos                                                                                                                          000                                                           000                   19700125antonio miguel de oliveira              marina alves de oliveira                Tecnico da ciencia da saude humana      20210203        20190228        S20200807000000000000088BLUCON DIVULGACOES LTDA                 00000100000049520008580662
2020260012000        001020251103000033000000000019776300000000004409000000000020217200000000202602000079202511100790790012966000147100007500000027
30202600120009BG148FA0JC406265    QNK0I66   01135618477  S10            2017/2018PRATA           01 - CHEVROLET      20210127                                                                                                                                                                                                                                                        000000000000
4020260012000PESSOAL              eliana                                  .                                                                034996330336                   
502026001200000112953689   ELEANDRO FERREIRA DA COSTA                                                                                                                                 000000000000000000011000000997969918                                                                                RUA UBERABA, 611                                                 37307414SAO PAULO                     SP011000000032699090                                            000000000000000000    RAPHAEL                                 .                                                                0000000009977703360000                                                                                                         0000000000000000000000                                                                                                         0000000000000000000000                                                                                                         0000000000000000000000
6020260012000        001020251202000033000000000019784100000000000000000000000019784100000000202602000080202511100800800013030000073800014250000027
102026001970035236418100   VANILDE APARECIDA GONCALVES             Cobranca       00095525200003421500001140500001345900000000000012000000006000005008020251218000189193580001603335400000-1649900000215793CRUZE SPORT6RUA BOA VISTA 01                        JARDIM DOS ESTADOS       QD34 LT18 78158090VARZEA GRANDE                 MT065992569102      065992569102      vanilde_vargas@hotmail.com                        DROGARIA LEONARDO                                                                                                                                065992569102                                                  000                   19650606LEVINO FRANCISCO GONCALVES              EFIGENIA APARECIDA ROQUE GONCALVES      Farmaceutico e afins                    20220408        20211026        L20220111000459800000220FEDERALLE MULTIPLOS NEGOCIOS LTDA       00000100000049522000030404
2020260019700        001020250902000033000000000021579300000000009279000000000022507200000000202609700047202511100770470011405000136900006850000000
2020260019700        001020251002000033000000000021579300000000007121000000000022291400000000202609700048202511100780480011405000136900006850000000
2020260019700        001020251103000033000000000021579300000000004820000000000022061300000000202609700049202511100790490011405000136900006850000000
30202600197009BRB33BE1N2064336    RAQ1B86   01261543944  COROLLA ALTIS 22021/2022PRETA           TOYOTA              00000000                                                                                                                                                                                                                                                        000000000000
6020260019700        001020251202000033000000000021579300000000000000000000000021579300000000202609700050202511100800500011405000068500013690000000
102026002070058659234200   EDERSON PANTOJA DO NASCIMENTO           Cobranca       0009659440000170410000170410000201590000000360001550000000600000580802025121800014846221000122191120000000-5010000024632194% NOVO ONIAL EXPEDITO BEZERRA FALCAO 13           CENTRO                   ANTONIO BE67200000MARITUBA                      PA000               091999838819      cleidecorrea018@gmail.com                          AUTONOMO                                                                                                                                        000                                                           000                   19751111ERALDO TRINDADE DO NASCIMENTO           DOMINGAS PANTOJA DO NASCIMENTO          Consultor e Outros Analistas nao classif20240805        20210227        S20240718000000000000246GLOBO BRASIL,CONSORCIOS E SERV LTDA ME  00000100000049520008960459
2020260020700        001020251103000033000000000024632100000000005492000000000025181300000000202600700057202511100790570017041000208900009930000036
30202600207009BD281B4ANYX58054    RWN2B16   01317649408  STRADA VOLCANO 2022/2022CINZA           02 - FIAT           00000000                                                                                                                                                                                                                                                        000000000000
6020260020700        001020251202000033000000000024889900000000000000000000000024889900000000202600700058202511100800580017050000105400022300000036
102026002130082977470263   DOMINGOS CLEITON OLIVEIRA DO NASCIMENTO Cobranca       0009033350000162520000081260000095450000000000001550000000600000700802025121800016279785000133990000000000000000000127893SPIN LT 1.8 RD TRANSAMAZONICA KM243  MD 2816042, 125PACAJA                   CHACARA   68485000PACAJA                        PA000               094991102916      cleitonn447@gmail.com                             AUTONOMO                      RD TRANSAMAZONICA KM243  MD 2816042, 125                                   68485000PACAJA                        PA094991102916                                                  000                   19850818IRENO PEREIRA DO NASCIMENTO             RAIMUNDA OLIVEIRA DO NASCIMENTO         Consultor e Outros Analistas nao classif20200831        20200206        L20200807000500000000049AUTO CONSORCIO REPR COM E SERVICOS LTDA 00000100000049520008759371
2020260021300        001020251002000033000000000012789300000000004221000000000013211400000000202601300068202511100780680008126000094800004710000000
2020260021300        001020251103000033000000000012789300000000002856000000000013074900000000202601300069202511100790690008126000094800004710000000
30202600213009BGEN69H0LG238680    QVD2J97   01237414404  ONIX           2020/2020PRATA           01 - CHEVROLET      20200820                                                                                                                                                                                                                                                        000000000000
4020260021300PESSOAL              ANTONIO RODRIGUES                       .                                                                000991253597                   
4020260021300PESSOAL              RAIMUNDA O. DO NASCI                    .                                                                000991088203                   
6020260021300        001020251202000033000000000011568800000000000000000000000011568800000000202601300070202511100800700007280000045300009010000000
102026002280071813721149   FABIA ISABEL DE MORAIS                  Cobranca       0009799640000100370000100370000117720000000210001550000000600000500802025121800014846221000122191120000000-1590000014383994% NOVO ONIRUA OCT¡VIO DIAS DE OLIVEIRA SN         SETOR MONTE SINAI        QD23 LT07 75393030TRINDADE                      GO000               062985128867      fabiamorais161@outlook.com                        PROFISSIONAL LIBERAL                                                                                                                             000                                                           000                   19780223ORLANDINO DIAS DE MORAIS                ARMELINA SABINA DE MORAIS               AUTONOMO                                20221114        20211029        L20221018000475000000220FEDERALLE MULTIPLOS NEGOCIOS LTDA       00000100000049522000031999
2020260022800        001020251103000033000000000014383900000000003207000000000014704600000000202602800049202511100790490010037000113500005790000021
30202600228009BHPB81BBPP066910    SCH4I37   01328056551  CRETA PLAT 1.0 2022/2023PRETA           05 - HYUNDAI        00000000                                                                                                                                                                                                                                                        000000000000
6020260022800        001020251202000033000000000014326400000000000000000000000014326400000000202602800050202511100800500010013000056800011230000021
102026102030013785015000154ALEXANDRE V O TERRAPLEN E TRANSPORTES   Cobranca       0007160600000317520000158760000173840000000000000350000000600000630802026021700019161405000174990000000000-94400000304202TRACKER 1.4 RUA SERGIPE 243                         CENTRO                   SALA A    85260000MANOEL RIBAS                  PR000               043999002960      alexandreogliari@hotmail.com                                                    RUA SERGIPE 243                         CENTRO                   SALA A    85260000MANOEL RIBAS                  PR000                                                           000                   20110527                                                                                                                        20220726        2020112120220519S20220414000000000000029APUCARANA AUTO PECAS LTDA               00000100000049520008907602
2020261020300        001020250910000033000000000030420200000000012269000000000031647100000000202610300058202511100750580015876000055600009520000000
2020261020300        001020251010000033000000000030420200000000009227000000000031342900000000202610300059202511100760590015876000055600009520000000
302026102030094BB0902MMR049947    BEY9G24   01257741257  SR/FACCHINI SRF2021/2021PRETA           FACCHINI            00000000                                                                                                                                                                                                                                                        000000000000
502026102030007142282908   ALEXANDRE VILMAR OGLIARI                                                                                                                                   000000000000000000043000000999002960alexandreogliari@hotmail.com                                                                                                                                                             000000000000000000                                            000000000000000000                                                                                                             0000000000000000000000                                                                                                         0000000000000000000000                                                                                                         0000000000000000000000                                                                                                         0000000000000000000000
6020261020300        001020251110000033000000000030420200000000000000000000000030420200000000202610300060202511100770600015876000095200005560000000
6020261020300        001020251210000033000000000030420200000000000000000000000030420200000000202610300061202511100780610015876000095200005560000000
6020261020300        001020260112000033000000000030420200000000000000000000000030420200000000202610300062202511100790620015876000095200005560000000
6020261020300        001020260210000033000000000027028900000000000000000000000027028900000000202610300063202511100800630014125000085600004650000000
102026200910063810115649   ENILE PEREIRA DE OLIVEIRA               Cobranca       0009478220000086910000086910000102770000000540001550000000600000660802026032700016279785000133990000000000000000000137703SPIN LT 1.8 RUA  NOVA VITORIA 47, 47                NOVA VITORIA                       42802445CAMACARI                      BA0711726429036     071999058450      enilepereira1@hotmail.com                         UNIGEL PLASTICOS S A CANDEIAS RODOVIA  BA-522, SN                                                        43813300CANDEIAS                      BA07138786546                                                   000                   19670205ATAIDE DOURADO DE OLIVEIRA              BELOZINA PEREIRA DE OLIVEIRA            Consultor e Outros Analistas nao classif20201209        20201019        L20201027000532000000249GNC AUTOMOTORES LTDA                    00000100000049520008888748
2020262009100        001020251022000033000000000013770300000000003608000000000014131100000000202629100061202511100750610008691000102700005050000054
30202620091009BGEP69H0LG274940    RCW5H00   01246047869  ONIX           2020/2020VERMELHA        01 - CHEVROLET      20201116                                                                                                                                                                                                                                                        000000000000
4020262009100PESSOAL              CESAR                                   .                                                                00099087969                    
6020262009100        001020251124000033000000000013770300000000000000000000000013770300000000202629100062202511100760620008691000050500010270000054
6020262009100        001020251222000033000000000013770300000000000000000000000013770300000000202629100063202511100770630008691000050500010270000054
6020262009100        001020260122000033000000000013770300000000000000000000000013770300000000202629100064202511100780640008691000050500010270000054
6020262009100        001020260223000033000000000013770300000000000000000000000013770300000000202629100065202511100790650008691000050500010270000054
6020262009100        001020260323000033000000000013884100000000000000000000000013884100000000202629100066202511100800660008723000049500010900000054
102026201680070600104672   FRANCISLEY FRANCISCO FERNANDES          Cobranca       0009600640000066520000066520000078010000000000001550000000600000740802026032700016279785000133990000000000-13400000104525SPIN LT 1.8 SCLRN 711                               ASA NORTE                AP 201 ENT70750553BRASILIA                      DF000               061996065619      francisleyfernandes@gmail.com                     SECRETARIA DA EDUCA«√O        AREA ESPECIAL NORTE 312                 ASA NORTE                          70750553BRASILIA                      DF000                                                           000                   19710720JOAQUIM FRANCISCO PEREIRA               LUZIA FERNANDES PEREIRA                 Professor do ensino medio               20230302        20200131        L20201027000560000000278RAFAEL CARDOSO DE ANDRADE ME            00000100000049520008754035
2020262016800        001020251022000033000000000010452500000000002753000000000010727800000000202626800069202511100750690006652000076500003840000000
30202620168009BWBH6BF7N4041026    RET9E42   01291718270  T CROSS SENSE T2022/2022BRANCA          09 - VOLKSWAGEN     00000000                                                                                                                                                                                                                                                        000000000000
4020262016800PESSOAL              PAULO HENRIQUE                          .                                                                061992189900                   
4020262016800PESSOAL                                                                                                                       061996286950                   
4020262016800PESSOAL                                                                                                                       061982544444                   
4020262016800PESSOAL                                                                                                                       061996322897                   
6020262016800        001020251124000033000000000010452500000000000000000000000010452500000000202626800070202511100760700006652000038400007650000000
6020262016800        001020251222000033000000000010452500000000000000000000000010452500000000202626800071202511100770710006652000038400007650000000
6020262016800        001020260122000033000000000010452500000000000000000000000010452500000000202626800072202511100780720006652000038400007650000000
6020262016800        001020260223000033000000000010452500000000000000000000000010452500000000202626800073202511100790730006652000038400007650000000
6020262016800        001020260323000033000000000010793000000000000000000000000010793000000000202626800074202511100800740006686000045000009190000000
102026201980023701579000115Y E PORCIUNCULA DA SILVA FEITOSA        Cobranca       00090682600001470600001470600001735300000000000012000000006000006808020260327000164185160001391399700000000-960000024144979% S10 ADVARUA  JOAO DE OLIVEIRA RAMOS 27          DONA DOM                 TERREO    55192509SANTA CRUZ DO CAPIBARIBE      PE000               081999997330      animalcenter@hotmail.com                                                                                                                                                                           000                                                           000                   20151119                                                                                                                        20251001        20200817        S20250327000000000000220FEDERALLE MULTIPLOS NEGOCIOS LTDA       00000100000049520008855251
2020262019800        001020251022000033000000000024144900000000006358000000000024780700000000202629800063202511100750630014706000176500008820000000
30202620198009886711AJTKN82476                           COMMANDER      2025/2026BRANCO          JEEP                00000000                                                                                                                                                                                                                                                        000000000000
502026201980002844035477   YALE ERIKA PORCIUNCULA DA SILVA FEITOSA                                                                                                                    000000000000000000081000000988734847yale.vet2016@gmail.com                                                                                                                                                                   000000000000000000                                            000000000000000000                                                                                                             0000000000000000000000                                                                                                         0000000000000000000000                                                                                                         0000000000000000000000                                                                                                         0000000000000000000000
6020262019800        001020251124000033000000000024144900000000000000000000000024144900000000202629800064202511100760640014706000088200017650000000
6020262019800        001020251222000033000000000024144900000000000000000000000024144900000000202629800065202511100770650014706000088200017650000000
6020262019800        001020260122000033000000000024144900000000000000000000000024144900000000202629800066202511100780660014706000088200017650000000
6020262019800        001020260223000033000000000024144900000000000000000000000024144900000000202629800067202511100790670014706000088200017650000000
6020262019800        001020260323000033000000000032267900000000000000000000000032267900000000202629800068202511100800680019650000120300023380000000
102026202180037934675000118KATIA TEODORO CONSTRUTORA LTDA          Cobranca       0009346070000108980000108980000122940000000000000900000000600000470802026032700018513850000160990000000000000000000197921SPIN PREMIERRUA MINISTRO CUNHA CANTO 131            CENTRO                             13800056MOGI MIRIM                    SP000               011971467448      k10financeiro@gmail.com                                                         RUA MINISTRO CUNHA CANTO 131            CENTRO                             13800056MOGI MIRIM                    SP01171467448                                                   000                   20200731                                                                                                                        20220630        20220520        L20220531000560000000033ARTVEL SUL SERVICOS E PECAS LTDA        00000100000049522000123471
2020262021800        001020251022000033000000000019792100000000005211000000000020313200000000202621800042202511100750420010898000075500006410000000
30202620218009BD281B4ANYX46643    RUL0D75   01301595001  FIAT STRADA VOL2022/2022BRANCA          02 - FIAT           00000000                                                                                                                                                                                                                                                        000000000000
502026202180007280355617   ROSERIA CARVALHO FIRMO                                                                                                                                     000000000000000000035000000099496800roseria1@gmail.com                                                                                                                                                                       000000000000000000                                            000000000000000000                                                                                                             0110000009832907490000                                                                                                         0190000009941535080000                                                                                                         0350000000999539630000                                                                                                         0350000009988868000000
6020262021800        001020251124000033000000000019792100000000000000000000000019792100000000202621800043202511100760430010898000064100007550000000
6020262021800        001020251222000033000000000019792100000000000000000000000019792100000000202621800044202511100770440010898000064100007550000000
6020262021800        001020260122000033000000000019792100000000000000000000000019792100000000202621800045202511100780450010898000064100007550000000
6020262021800        001020260223000033000000000019792100000000000000000000000019792100000000202621800046202511100790460010898000064100007550000000
6020262021800        001020260323000033000000000019801800000000000000000000000019801800000000202621800047202511100800470010905000066100007340000000
102026300840057895589172   RAITELENE FALCAO SANTOS                 Cobranca       0009049030000135780000135780000160180000000980001550000000600000760802026042800015793785000129990000000000-22100000208223NOVO PRISMA AVENIDA  JOSE CARRION 744               MORADA DA PAZ            CASA      68550315REDENCAO                      PA000               094992781865      raitelenefalcao1972@gmail.com                     AUTONOMA                                                                                                                                         000                                                           000                   19700614raimundo alves vogado                   ameniza alves falcao                    Consultor e Outros Analistas nao classif20240829        20200108        S20230929000000000000308JUARY AUTOMOVEIS LTDA                   00000100000049520008736885
2020263008400        001020251020000033000000000020822300000000005588000000000021381100000000202638400070202511100740700013578000155600007860000098
30202630084009BGEX76H0SB127376    SZG3D86   01410388872  TRACKER T A    2024/2025AZUL            01 - CHEVROLET      20240816                                                                                                                                                                                                                                                        000000000000
4020263008400PESSOAL                                                                                                                       094992542740                   
6020263008400        001020251121000033000000000020822300000000000000000000000020822300000000202638400071202511100750710013578000078600015560000098
6020263008400        001020251222000033000000000020822300000000000000000000000020822300000000202638400072202511100760720013578000078600015560000098
6020263008400        001020260120000033000000000020822300000000000000000000000020822300000000202638400073202511100770730013578000078600015560000098
6020263008400        001020260220000033000000000020822300000000000000000000000020822300000000202638400074202511100780740013578000078600015560000098
6020263008400        001020260320000033000000000020822300000000000000000000000020822300000000202638400075202511100790750013578000078600015560000098
6020263008400        001020260420000033000000000021437200000000000000000000000021437200000000202638400076202511100800760013643000086000018900000098
102026301060079856942187   FLAVIA MARTINS CARVALHO SILVA           Cobranca       00096556300000229500000229500000268800000000000015500000006000008008020260428000173732850001429900000000000-2900000038436TRACKER 1.4 R JOSE SINHA Q 80 L 05 1200             VILA DOS FUNCIONARIOS              75660000BURITI ALEGRE                 GO000               064996665490      flaviamartinsdasilva50@gmail.com                  PROFESSORA  ENSINO FUNDAMENTAL                                                                                                                   000                                                           000                   19760910SERGIO MENDES DE CARVALHO               SIRLEI MARTINS DE CARVALHO              Professor do ensino fundamental         20240708        20190906        L20240529000287500000278RAFAEL CARDOSO DE ANDRADE ME            00000100000049520008663354
2020263010600        001020251020000033000000000003843600000000001038000000000003947400000000202630600074202511100740740002295000026000001330000000
30202630106009BGEP76B0SB143600    SDD1J77   01398393670  CHEV/ TRACKER 12024/2025PRATA SHARK     01 - CHEVROLET      00000000                                                                                                                                                                                                                                                        000000000000
502026301060001694472191   SERGIO MENDES DE CARVALHO                                                                                                                                  000000000000000000000000000000000000flaviamartinsdasilva50@gmail.com                                                                                                                                                         064000000993277735                                            000000000000000000                                                                                                             0000000000000000000000                                                                                                         0000000000000000000000                                                                                                         0000000000000000000000                                                                                                         0000000000000000000000
6020263010600        001020251121000033000000000003843600000000000000000000000003843600000000202630600075202511100750750002295000013300002600000000
6020263010600        001020251222000033000000000003843600000000000000000000000003843600000000202630600076202511100760760002295000013300002600000000
6020263010600        001020260120000033000000000003843600000000000000000000000003843600000000202630600077202511100770770002295000013300002600000000
