0061074175202605120081212216001600JOAO BARBOSA                                                          SERASA-CONVEM04004926R0004   37789202                                                                                                                                                                                                                                                                                                                                                                                                                                                                    0000001
1E0001272023121720270717C3     F200000693013150402                                                       EDIVALDO DA SILVA DOURADO JUNIOR                                      19540109                                                                                                                                            RUA CLAUDIO PEREIRA BORGES, 98                                   IRECe                    BA449000000000000000716800000000847530246000000000J1049937055000111GMAC ADMINISTRADORA DE CONSORCIO LTDA         5016                                                               0000002
1E0001272023121720270717C3     F200002792009756802                                                       AUGUSTO CARDOSO PEREIRA                                               00000000                                                                                                                                                                                                             IRECe                    BA000000000000000000716800000000847530246000000000J1049937055000111GMAC ADMINISTRADORA DE CONSORCIO LTDA         5016                                                               0000003
1E0001272026032320260323C3     F200005728043666802                                                       ANTONIO CARLOS DA CRUZ                                                19680311                                                                                                                                            AV B 01                                                          CANAa DOS CARAJaS        PA685370000000000001091750000000848110695000000000J1049937055000111GMAC ADMINISTRADORA DE CONSORCIO LTDA         5016                                                               0000004
1E0001272026032020260320C3     F200004237046788602                                                       DIEGO RAFAEL RONZANI                                                  19911127                                                                                                                                            RUA MARIA RIBEIRO LAIA CRISTOVAO 1846                            NOVO HORIZONTE           SP149600000000000001092990000000847970763000000000J1049937055000111GMAC ADMINISTRADORA DE CONSORCIO LTDA         5016                                                               0000005
1E0001272026031020261210C3     F200000156458454202                                                       JOCIVALDO BARBOSA SANTOS                                              19850222                                                                                                                                            RUA HEITOR DIAS 132                                              SALVADOR                 BA417107450000000002785340000000848000895000000000J1049937055000111GMAC ADMINISTRADORA DE CONSORCIO LTDA         5016                                                               0000006
1E0001272026042200000000C3     F200003497126683602                                                       GABRIEL FELIPE DAMACENA MOREIRA                                       19940314                                                                                                                                            RUA ANGELO ANTONIO DE CESARE 79                                  PRESIDENTE BERNARDES     SP193000000000000000000000000000847900529000000000J1049937055000111GMAC ADMINISTRADORA DE CONSORCIO LTDA         5016                                                               0000007
1E0001272026032300000000C3     F200006193973931402                                                       LAYANE ANDRADE SOUSA AQUINO                                           20000203                                                                                                                                            RUA RIO GRANDE DO NORTE 190                                      IMPERATRIZ               MA659191400000000000000000000000847810131000000000J1049937055000111GMAC ADMINISTRADORA DE CONSORCIO LTDA         5016                                                               0000008
1E0001272026042220260423C3     F200002705564780002                                                       MARIANO ELIAS ALVARENGA                                               19491007                                                                                                                                            RUA JOAO CARLINDO DE SOUZA 605                                   PRESIDENTE PRUDENTE      SP191000800000000002006620000000847470425000000000J1049937055000111GMAC ADMINISTRADORA DE CONSORCIO LTDA         5016                                                               0000009
1E0001272026021000000000C3     F200000123399939702                                                       JUNIOR TELES FERREIRA                                                 19840604                                                                                                                                            RUA MIGUEL MARINHO 498                                           SaO MIGUEL DO FIDALGO    PI645580000000000000000000000000847790103000000000J1049937055000111GMAC ADMINISTRADORA DE CONSORCIO LTDA         5016                                                               0000010
1E0001272026021020260410C3     F200006099836926802                                                       ELIZABETE BARBOSA DE LIMA                                             19790603                                                                                                                                            AV ESPARTA 2789                                                  MACAPa                   AP689074600000000006486580000000847380089000000000J1049937055000111GMAC ADMINISTRADORA DE CONSORCIO LTDA         5016                                                               0000011
1E0001272026021000000000C3     J101970269800011502                                                       JEANE DE JESUS BRITO 06211451571                                      00000000                                                                                                                                            RUA 10 DE NOVEMBRO                                               SALVADOR                 BA403155600000000000000000000000847300954000000000J1049937055000111GMAC ADMINISTRADORA DE CONSORCIO LTDA         5016                                                               0000012
1E0001272026021000000000C3     F200000621145157102                                                       JEANE DE JESUS BRITO                                                  00000000                                                                                                                                                                                                             SALVADOR                 BA000000000000000000000000000000847300954000000000J1049937055000111GMAC ADMINISTRADORA DE CONSORCIO LTDA         5016                                                               0000013
1E0001272026021000000000C3     F200000246954124702                                                       WALLAFE MOURA DE SOUSA                                                19950208                                                                                                                                            TV MANOEL FERREIRA 306                                           SANTAReM                 PA680000010000000000000000000000847290493000000000J1049937055000111GMAC ADMINISTRADORA DE CONSORCIO LTDA         5016                                                               0000014
1E0001272026021000000000C3     F200000303071419502                                                       EZEQUIEL SOARES LOURENCO                                              19910318                                                                                                                                            RUA CACHOEIRA ALTA 01                                            TRINDADE                 GO753804950000000000000000000000847040657000000000J1049937055000111GMAC ADMINISTRADORA DE CONSORCIO LTDA         5016                                                               0000015
1E0001272026042000000000C3     F200003971776582002                                                       JUSCELINO DE JESUS BELAU                                              19840427                                                                                                                                            RUA FELISBINO DE OLIVEIRA 490                                    COTIA                    SP067176300000000000000000000000848180203000000000J1049937055000111GMAC ADMINISTRADORA DE CONSORCIO LTDA         5016                                                               0000016
1E0001272026042020271120C3     F200004250680185502                                                       AMANDA ALVES BATISTA                                                  19930912                                                                                                                                            RUA PRUDENTE DE MORAIS 546                                       MARiLIA                  SP175040810000000004387610000000847640665000000000J1049937055000111GMAC ADMINISTRADORA DE CONSORCIO LTDA         5016                                                               0000017
1E0001272026042020271120C3     F200002574623681002                                                       LEANDRO EDIMAR BATISTA                                                00000000                                                                                                                                                                                                             MARiLIA                  SP000000000000000004387610000000847640665000000000J1049937055000111GMAC ADMINISTRADORA DE CONSORCIO LTDA         5016                                                               0000018
1E0001272026021020260310C3     F200006559415031502                                                       ABIMAEL DE SALES FERREIRA                                             19811129                                                                                                                                            QUADRA O CASA 01 JARDIM DAS PALMEIRAS 01                         TERESINA                 PI640889910000000002265430000000847910996000000000J1049937055000111GMAC ADMINISTRADORA DE CONSORCIO LTDA         5016                                                               0000019
1E0001272026041700000000C3     F200000893008974702                                                       CRISTIANE SANTOS DA SILVA SIQUEIRA                                    19821017                                                                                                                                            RUA JOAQUIM JOSE SOARES 1955                                     DUQUE DE CAXIAS          RJ250351850000000000000000000000847540318000000000J1049937055000111GMAC ADMINISTRADORA DE CONSORCIO LTDA         5016                                                               0000020
1E0001272026021020260410C3     F200003225135887002                                                       EDIMILSON BATISTA MEDEIROS                                            19851208                                                                                                                                            RUA JOAO PEDRO GASPARO 287                                       SaO JOSe DO RIO PRETO    SP150000000000000003411280000000847910037000000000J1049937055000111GMAC ADMINISTRADORA DE CONSORCIO LTDA         5016                                                               0000021
1E0001272026021020260410C3     F200003968650484202                                                       NELLY DIAS DA SILVA                                                   00000000                                                                                                                                                                                                             SaO JOSe DO RIO PRETO    SP000000000000000003411280000000847910037000000000J1049937055000111GMAC ADMINISTRADORA DE CONSORCIO LTDA         5016                                                               0000022
1E0001272026021020260310C3     J104673222600018802                                                       FAGOM TUR TURISMO E VIAGENS LTDA                                      00000000                                                                                                                                            RUA DO CARRO 60                                                  SALVADOR                 BA400402400000000001839200000000847590970000000000J1049937055000111GMAC ADMINISTRADORA DE CONSORCIO LTDA         5016                                                               0000023
1E0001272026021020260310C3     F200003139265255302                                                       MARIA DE FATIMA SANTOS DE SANTANA                                     00000000                                                                                                                                                                                                             SALVADOR                 BA000000000000000001839200000000847590970000000000J1049937055000111GMAC ADMINISTRADORA DE CONSORCIO LTDA         5016                                                               0000024
1E0001272026021020260210C3     F200007798281959102                                                       JAQUELINE CRUZ GUERREIRO                                              19780201                                                                                                                                            RUA RAFAEL UCHOA 95                                              SALVADOR                 BA404355900000000000876740000000847300914000000000J1049937055000111GMAC ADMINISTRADORA DE CONSORCIO LTDA         5016                                                               0000025
1E0001272026021020260310C3     F200003717222058702                                                       PEDRO DE SANTANA                                                      19640709                                                                                                                                            RUA TABULEIRO DA BAHIANA 288                                     CAMAcARI                 BA428063800000000002130090000000847260113000000000J1049937055000111GMAC ADMINISTRADORA DE CONSORCIO LTDA         5016                                                               0000026
1E0001272026021020260510C3     F200007048440716302                                                       CAIO GABRIEL FERRAZ DE MELO                                           20001215                                                                                                                                            RUA  RB 13, 0                                                    APARECIDA DE GOIaNIA     GO744743750000000003489200000000701970074000000000J1049937055000111GMAC ADMINISTRADORA DE CONSORCIO LTDA         5016                                                               0000027
1E0001272026021000000000C3     F200000712907750602                                                       FILIPE BORGES BISPO SILVA                                             19980523                                                                                                                                            RUA CAIXA D"AGUA 270A                                            CAMAcARI                 BA428499990000000000000000000000847780318000000000J1049937055000111GMAC ADMINISTRADORA DE CONSORCIO LTDA         5016                                                               0000028
1E0001272026021020260112C3     F200000215581547602                                                       ANDERSON LEONARDO MARTINS                                             19750102                                                                                                                                            R 4 26                                                           SaO LUiS                 MA650528500000000000634010000000848190627000000000J1049937055000111GMAC ADMINISTRADORA DE CONSORCIO LTDA         5016                                                               0000029
1E0001272026042220290323C3     F200000662469682602                                                       CASSIA REGINA MARQUES                                                 19650311                                                                                                                                            RUA ARGENTINA                                                    VOTUPORANGA              SP155051910000000001682850000000847900690000000000J1049937055000111GMAC ADMINISTRADORA DE CONSORCIO LTDA         5016                                                               0000030
1E0001272026041720260517C3     F200001222578646102                                                       IGOR MARQUES DE SOUZA GOMES                                           19970830                                                                                                                                            RUA ABILIIO CESAR P NETO 30                                      SANTA CRUZ DO CAPIBARIBE PE551903890000000004496750000000847400988000000000J1049937055000111GMAC ADMINISTRADORA DE CONSORCIO LTDA         5016                                                               0000031
1E0001272026041720260517C3     F200000331805847502                                                       DEBORA QUETTI MARQUES DE SOUZA                                        00000000                                                                                                                                                                                                             SANTA CRUZ DO CAPIBARIBE PE000000000000000004496750000000847400988000000000J1049937055000111GMAC ADMINISTRADORA DE CONSORCIO LTDA         5016                                                               0000032
1E0001272026021020260210C3     F200007525444110002                                                       JULIANA DOS SANTOS LIMA                                               19950511                                                                                                                                            RUA INDUSTRIAL , 0                                               ANaPOLIS                 GO750019700000000000991150000000847190326000000000J1049937055000111GMAC ADMINISTRADORA DE CONSORCIO LTDA         5016                                                               0000033
1E0001272026021000000000C3     F200001299812147002                                                       LUCAS DE FREITAS ALVES                                                19990201                                                                                                                                            RUA JOAQUIM RODRIGUES NOGUEIRA 252                               ARARIPINA                PE562800000000000000000000000000847290275000000000J1049937055000111GMAC ADMINISTRADORA DE CONSORCIO LTDA         5016                                                               0000034
1E0001272026032220260722C3     J105529548800011302                                                       BETINA COMERCIAL DE ALI E LOGISTICA LTDA                              00000000                                                                                                                                            RUA 14 DE JULHO 1207                                             ANaPOLIS                 GO750240500000000003804770000000847230392000000000J1061074175000138MAPFRE SEGUROS GERAIS S.A.                    5015                                                               0000035
1E0001272026022220260822C3     F200008519897835302                                                       MAVENIE DA COSTA LOPES                                                19660926                                                                                                                                            RUA DA IGREJA  02                                                ITUPIRANGA               PA685800000000000007455680000000847140576000000000J1061074175000138MAPFRE SEGUROS GERAIS S.A.                    5015                                                               0000036
1E0001272026052020300520C3     F200000314467645402                                                       JOAO  BATISTA MONTEIRO DE SOUSA                                       19790603                                                                                                                                            R ALCIDES ALVES SANTIAGO N  36                                   SUMe                     PB585400000000000011856080000000270080153000000000J1061074175000138MAPFRE SEGUROS GERAIS S.A.                    5015                                                               0000037
1E0001272026031720260217C3     F200000149320728802                                                       KAMILA CASTRO COSTA                                                   19960126                                                                                                                                            R AMARAL SANTOS 424                                              MANAUS                   AM690332000000000004554750000000847670204000000000J1061074175000138MAPFRE SEGUROS GERAIS S.A.                    5015                                                               0000038
9                                                                                                                                                                                                                                                                                                                                                                                                                                                                                                                                                                                                                0000039
