0061074175202605120081212216001600JOAO BARBOSA                                                          SERASA-CONVEM04004924R0004   37789202                                                                                                                                                                                                                                                                                                                                                                                                                                                                    0000001
1I0001382026022220290322C3     F200009341306850400                                                       EDNEIDE RODRIGUES DE SOUZA                                            19760814                                                                                                                                            R ORLANDO BAHIA MONTEIRO CJ FAZ                                  SALVADOR                 BA413393000000000002333640000000847890166000000000J1061074175000138MAPFRE SEGUROS GERAIS S/A                     5015   059                                                         0000002
1I0001382026011020260510C3     F200000250207664100                                                       GENTIL ARANTES CARDOSO                                                19731028                                                                                                                                            R SAO GERALDO 409                                                ARCOS                    MG355880000000000003692010000000701950249000000000J1061074175000138MAPFRE SEGUROS GERAIS S/A                     5015                                                               0000003
1I0001382025111720270117C3     J101907440400015800                                                       TRANS BARROSO LTDA                                                    19010101                                                                                                                                            R BARBOSA 367                                                    BELO HORIZONTE           MG308812500000000006944980000000847390846000000000J1061074175000138MAPFRE SEGUROS GERAIS S/A                     5015                                                               0000004
1I0001382026011820260318C3     F200003755786184100                                                       LEONARDO DE SOUZA RODRIGUES                                           19881027                                                                                                                                            R ERNESTO ZIGGIATTI 122                                          CAMPINAS                 SP131015380000000006024370000000847010042000000000J1061074175000138MAPFRE SEGUROS GERAIS S/A                     5015                                                               0000005
1I0001382026012320260623C3     F200000023634430700                                                       MARIA JEANE DE ALMONDES MOURA FRAZAO                                  19830210                                                                                                                                            AV FERROVIARIA 7975                                              TERESINA                 PI640885300000000008984080000000847060059000000000J1061074175000138MAPFRE SEGUROS GERAIS S/A                     5015                                                               0000006
1I0001382025122220281022C3     F200007299010410000                                                       ERENILDA CARDOSO DOS SANTOS                                           19830316                                                                                                                                            R DOS IPES 664 QD 01 C                                           RIO BRANCO               AC699033430000000005238930000000847810753000000000J1061074175000138MAPFRE SEGUROS GERAIS S/A                     5015                                                               0000007
1I0001382025122220260222C3     F200003405130581300                                                       MIGUEL BATISTA DIAS                                                   19010101                                                                                                                                            R DONA DORITA 217                                                AVARE                    SP187057100000000003171190000000701870081000000000J1061074175000138MAPFRE SEGUROS GERAIS S/A                     5015                                                               0000008
1I0001382026022220261022C3     J104442504200014000                                                       PAMONHARIA MAIS SABOR LTDA                                            19010101                                                                                                                                            R 5 15                                                           GOIANIA                  GO743698720000000003772350000000847270557000000000J1061074175000138MAPFRE SEGUROS GERAIS S/A                     5015                                                               0000009
1I0001382026011220290512C3     F200008809455398700                                                       ODAIR JOSE LOPES DA SILVA                                             19750415                                                                                                                                            R RIO GRANDE DO NORTE 470                                        CASCAVEL                 PR858130900000000003380080000000847930845000000000J1061074175000138MAPFRE SEGUROS GERAIS S/A                     5015                                                               0000010
1I0001382025122220270222C3     F200009181848633400                                                       LUZINETE ROCHA DOS SANTOS                                             19751122                                                                                                                                            AV SAO JORGE                                                     GOIANIA                  GO746854900000000005985990000000847480252000000000J1061074175000138MAPFRE SEGUROS GERAIS S/A                     5015   059                                                         0000011
9                                                                                                                                                                                                                                                                                                                                                                                                                                                                                                                                                                                                                0000012
